:100000000C94DD020C9405030C9405030C94050379
:100010000C9405030C9405030C9405030C94050340
:100020000C9405030C9405030C9405030C94050330
:100030000C9405030C9405030C9405030C94050320
:100040000C948F0C0C9405030C94CD0F0C94A70FFB
:100050000C9405030C9405030C9405030C94050300
:100060000C94D90C0C94050300000000003E5B4F7B
:100070005B3E3E6B4F6B3E1C3E7C3E1C183C7E3C08
:10008000181C577D571C1C5E7F5E1C00183C180016
:10009000FFE7C3E7FF0018241800FFE7DBE7FF30A6
:1000A000483A060E2629792926407F050507407F14
:1000B00005253F5A3CE73C5A7F3E1C1C08081C1C87
:1000C0003E7F14227F22145F5F005F5F06097F017D
:1000D0007F006689956A606060606094A2FFA29468
:1000E00008047E040810207E201008082A1C080836
:1000F0001C2A08081E101010100C1E0C1E0C303884
:100100003E3830060E3E0E06000000000000005F84
:1001100000000007000700147F147F14242A7F2AA0
:100120001223130864623649562050000807030062
:10013000001C2241000041221C002A1C7F1C2A08AE
:10014000083E080800807030000808080808000011
:1001500060600020100804023E5149453E00427F85
:10016000400072494949462141494D331814127FD4
:100170001027454545393C4A494931412111090774
:100180003649494936464949291E000014000000F5
:1001900040340000000814224114141414140041C7
:1001A00022140802015909063E415D594E7C121184
:1001B000127C7F494949363E414141227F414141BC
:1001C0003E7F494949417F090909013E4141517337
:1001D0007F0808087F00417F41002040413F017FA8
:1001E000081422417F404040407F021C027F7F0470
:1001F00008107F3E4141413E7F090909063E4151B9
:10020000215E7F09192946264949493203017F01A8
:10021000033F4040403F1F2040201F3F4038403FA9
:10022000631408146303047804036159494D4300BF
:100230007F4141410204081020004141417F0402F6
:10024000010204404040404000030708002054548D
:1002500078407F284444383844444428384444286B
:100260007F385454541800087E090218A4A49C78BE
:100270007F0804047800447D40002040403D007F1A
:100280001028440000417F40007C047804787C08FA
:100290000404783844444438FC18242418182424CE
:1002A00018FC7C08040408485454542404043F44B3
:1002B000243C4040207C1C2040201C3C4030403CE2
:1002C00044281028444C9090907C4464544C440042
:1002D00008364100000077000000413608000201A6
:1002E0000204023C2623263C1EA1A161123A404092
:1002F000207A38545455592155557941225454780F
:1003000042215554784020545579400C1E527212A7
:100310003955555559395454545939555454580030
:1003200000457C410002457D420001457C407D1234
:1003300011127DF0282528F07C5455450020545496
:100340007C547C0A097F4932494949323A44444441
:100350003A324A4848303A4141217A3A424020787C
:10036000009DA0A07D3D4242423D3D4040403D3C7D
:1003700024FF2424487E4943662B2FFC2F2BFF09A2
:1003800029F620C0887E0903205454794100004496
:100390007D413048484A32384040227A007A0A0A81
:1003A000727D0D19317D2629292F282629292926F4
:1003B00030484D4020380808080808080808382F39
:1003C00010C8ACBA2F102834FA00007B00000814C3
:1003D0002A142222142A14085500550055AA55AA99
:1003E00055AAFF55FF55FF000000FF00101010FF39
:1003F00000141414FF001010FF00FF1010F010F094
:10040000141414FC001414F700FF0000FF00FF1484
:1004100014F404FC141417101F10101F101F1414D0
:10042000141F00101010F0000000001F101010101A
:100430001F10101010F010000000FF10101010100E
:1004400010101010FF10000000FF140000FF00FF4C
:1004500000001F10170000FC04F4141417101714E8
:1004600014F404F40000FF00F7141414141414140A
:10047000F700F7141414171410101F101F1414147D
:10048000F4141010F010F000001F101F0000001FE7
:1004900014000000FC140000F010F01010FF10FF1A
:1004A000141414FF141010101F00000000F010FFAF
:1004B000FFFFFFFFF0F0F0F0F0FFFFFF0000000093
:1004C00000FFFF0F0F0F0F0F3844443844FC4A4A17
:1004D0004A347E02020606027E027E0263554941CC
:1004E000633844443C04407E201E2006027E020203
:1004F00099A5E7A5991C2A492A1C4C7201724C3017
:100500004A4D4D303048784830BC625A463D3E49ED
:100510004949007E0101017E2A2A2A2A2A44445F91
:10052000444440514A444040444A51400000FF0185
:1005300003E080FF000008086B6B08361236243693
:10054000060F090F060000181800000010100030F8
:1005500040FF0101001F01011E00191D1712003C80
:100560003C3C3C00000000000000000800020100CC
:10057000000304070000000000000000000000006D
:10058000250028002B0000000000240027002A007E
:100590000404040404040404020202020202030329
:1005A0000303030301020408102040800102040831
:1005B00010200102040810204D1511241FBECFEF9A
:1005C000D8E0DEBFCDBF15E0A0E0B1E0EEE4F0E39F
:1005D00002C005900D92AC39B107D9F727E0ACE91C
:1005E000B5E001C01D92AB33B207E1F712E0CDEDEB
:1005F000D2E004C02197FE010E941A18CC3DD10719
:10060000C9F70E9481110C9425180C940000FC017C
:10061000538D448D252F30E0842F90E0821B930B67
:10062000541710F0CF96089501970895FC01918D0D
:10063000828D981761F0828DDF01A80FB11D5D9644
:100640008C91928D9F5F9F73928F90E008958FEFB2
:100650009FEF0895FC01918D828D981731F0828D66
:10066000E80FF11D858D90E008958FEF9FEF0895BD
:10067000FC01918D228D892F90E0805C9F4F821B21
:1006800091098F739927089580E090E0892B29F0D4
:100690000E94670E81110C94000008953FB7F894F2
:1006A0008091E8059091E905A091EA05B091EB05EC
:1006B00026B5A89B05C02F3F19F00196A11DB11DBD
:1006C0003FBFBA2FA92F982F8827820F911DA11DF8
:1006D000B11DBC01CD0142E0660F771F881F991F35
:1006E0004A95D1F7089508952F923F924F925F92C5
:1006F0006F927F928F929F92AF92BF92CF92DF9232
:10070000EF92FF920F931F93CF93DF93CDB7DEB796
:100710006B970FB6F894DEBF0FBECDBF4C015A8366
:1007200049831F830E83FD82EC82CB82DC015896C5
:100730004D915C9159974115510509F0A5C0189646
:100740008D919C911997681779070CF05AC11A96E8
:100750008D919C911B97E981FA81E817F9070CF0BC
:1007600050C1D12CCB013B81F6E03F9F800D911D04
:100770001124181619060CF044C1C60133E0880F85
:10078000991F3A95E1F749815A81840F951F1816F0
:1007900019060CF036C157968C91811103C0203B8D
:1007A00008F02F5F55E0259F900111247E876D870B
:1007B0005B01212CC901861B970B99878887A9812A
:1007C000BA811896BB87AA87B5E02B1641F0E88559
:1007D000F985EA0DFB1DE859FF4F349001C0312C1B
:1007E00069807A80230130FE12C0D401ED91FC9122
:1007F000BB81B13031F40084F185E02D2E813F8141
:1008000018C00288F389E02DEE80FF801CC0EC81C7
:10081000FD812E813F81E217F307E1F0D401ED91D4
:10082000FC91BB81B13051F40084F185E02D2C8125
:100830003D81A301B501C40109950CC00288F3896B
:10084000E02DEC80FD8086019601A2016D857E85FC
:10085000C40109953694EFEF6E1A7E0A4C0C5D1CAC
:100860002A853B856216730609F0BDCF23943FEFBE
:10087000A31AB30A4D855E854C0D5D1D5E874D87BD
:1008800056E02512A1CFBDC0FA01349634913297BB
:1008900085919491231BA7E02A9F800D911D11241F
:1008A000FA01259134913A8B298BFC0125903490E3
:1008B000FC01329634913887319644914C873196B9
:1008C000E491FC013596A491319684915B8152307C
:1008D00050F06A2E0A2E000C7708E82F082E000C24
:1008E000FF0BFB87EA87FB81CF2ED12C6C9C9001FC
:1008F0006D9C300D7C9C300D1124A901460F571FB3
:10090000588B4F871C82A12CEA2FAA0FFF0B3B01AB
:100910006E0E7F1E5885650F711DDB01AE0FBF1F68
:10092000BF8BAE8BE981FA81E80FF11D87FDFA9547
:10093000F98FE88F9C85A91608F063C08A2D90E096
:100940004A855B85480F591F4C9D90014D9D300D88
:100950005C9D300D1124A981BA81A20FB31FBE87FF
:10096000AD877B8E6A8E4F845888BC81B619BB8B4D
:10097000E88DF98DE80FF91FFD8BEC8B8B89FA8DD3
:100980008F0F2A8D3B8D4E895F892417350799F18A
:10099000877041F4C1010196E989FA89E20DF31DDE
:1009A000B4901C01B7FE1EC0D401ED91FC91BB8137
:1009B000B13061F40084F185E02D2E813F814C89B6
:1009C0005D896A8D7B8DC40109950CC00288F3890D
:1009D000E02DEE80FF80860196014D855E85B20197
:1009E000C4010995BB0CEA8DFB8D3196FB8FEA8F14
:1009F0004C0C5D1CC3CF5C818885580F5C83A3942D
:100A000099CF6B960FB6F894DEBF0FBECDBFDF91C6
:100A1000CF911F910F91FF90EF90DF90CF90BF90FB
:100A2000AF909F908F907F906F905F904F903F908E
:100A30002F900895AF92BF92CF92EF92FF920F93B3
:100A40001F93CF93DF93EC01262F888D998D00970C
:100A500009F042C06A3069F42C898E859F8538E0A0
:100A6000239F800D911D11249F878E871D861C86D4
:100A7000ACC06D3009F4A9C08E898823C1F03C89CF
:100A80008C859D8546E0349F800D911D11244885FD
:100A90005985841795075CF01D861C868E859F8579
:100AA000E8E03E9F800D911D11249F878E87EA8884
:100AB000FB88088919894E855F856C857D85CC8882
:100AC000CE010E9474032C898C859D85F6E02F9FB2
:100AD000800D911D112441C06A3079F41D861C8659
:100AE0002C89FC013696E4918E859F852E9F800D82
:100AF000911D11249F878E8768C06D3009F465C0F1
:100B0000AC014C5F5F4FFA013491631708F45DC08C
:100B10003196E491E61708F458C0FA014491362F53
:100B2000341BFC013296A590B490F7E03F9FA00CD7
:100B3000B11C1124F501329634913196E49133239E
:100B400011F0E1110DC0F5013496E4912C898C85EA
:100B50009D85E29F800D911D11249D878C8735C056
:100B6000F501359644915E89552311F16C89E32F87
:100B7000F0E0E40FF11D47FDFA956E9FD0016F9FE5
:100B8000B00D11244C855D854A0F5B1FE885F98502
:100B90004E175F076CF01D861C86FC013696E491AB
:100BA0008E859F856E9F800D911D11249F878E8756
:100BB000EA88FB88088919894E855F856C857D8563
:100BC000CC88CE010E947403BECF81E090E0DF911B
:100BD000CF911F910F91FF90EF90CF90BF90AF906A
:100BE0000895EF92FF920F931F93DC01ED91FC911A
:100BF00011971A960D911C911B9718962D913C9167
:100C000019970288F389E02D7B0140E050E060E015
:100C100070E009951F910F91FF90EF9008956F92EA
:100C20007F928F929F92AF92BF92CF92DF92EF927C
:100C3000FF920F931F93CF93DF936C015A014801EA
:100C4000EB013B01620E731EC615D70574F4D60185
:100C5000ED91FC910484F585E02D87019401A501B7
:100C6000BE01C60109952196EFCFDF91CF911F916B
:100C70000F91FF90EF90DF90CF90BF90AF909F903B
:100C80008F907F906F900895EF92FF920F931F9334
:100C9000DC01ED91FC91260F371F215031090284B0
:100CA000F385E02D78018A0109951F910F91FF903E
:100CB000EF900895EF92FF920F931F937801DC015C
:100CC000ED91FC91240F351F890101501109028417
:100CD000F385E02D9B0109951F910F91FF90EF90F7
:100CE00008956F927F928F929F92AF92BF92CF9210
:100CF000DF92EF92FF920F931F93CF93DF93EC015C
:100D00004B015A0169013801E881F9810684F785B0
:100D1000E02D87010995E881F981A501460D571D50
:100D2000415051090684F785E02D9601B401CE01AA
:100D30000995E881F9810484F585E02D9301A501E9
:100D4000B401CE010995E881F981C80CD91CB6011E
:100D5000615071090484F585E02D9301A501CE0150
:100D60000995DF91CF911F910F91FF90EF90DF9048
:100D7000CF90BF90AF909F908F907F906F9008958D
:100D80002F923F924F925F926F927F928F929F929B
:100D9000AF92BF92CF92DF92EF92FF920F931F9389
:100DA000CF93DF9300D01F92CDB7DEB74C017B838A
:100DB0006A836A01590117019801241B350B37FF1B
:100DC00003C0319521953109C5014A815B81841B9E
:100DD000950B97FF03C091958195910951E0598337
:100DE0008217930714F019820BC09A2D8B2D58018E
:100DF000092F182F9A818B81DB82CA82C92ED82EA7
:100E00008A819B81A816B9065CF49C2D8D2D680102
:100E1000092F182F9A818B81BB82AA82A92EB82E06
:100E20002501AA81BB814A1A5B0A38016C187D082A
:100E300077FE03C0719461947108720157FE03C07C
:100E4000BFEFEB1AFB0AF594E794C016D1061CF02D
:100E50000FEF1FEF1FC001E010E01CC0D401ED91A7
:100E6000FC91B9810084F185E02D9101BB23C1F093
:100E70004A815B81B601C4010995E618F708F7FEBF
:100E800004C0C00ED11EE40CF51CEA81FB81319632
:100E9000FB83EA834A815B81A416B506FCF604C095
:100EA000A6016A817B81E7CF0F900F900F90DF91B1
:100EB000CF911F910F91FF90EF90DF90CF90BF9057
:100EC000AF909F908F907F906F905F904F903F90EA
:100ED0002F9008950F931F93CF93DF93DC015596C6
:100EE0008C915597823071F0833009F1813009F08F
:100EF0008CC01496ED91FC911597E41BF50BE21B49
:100F0000F30B20C01496ED91FC911597CF01861B31
:100F1000970BBC01615071091696ED91FC911797E2
:100F2000CF01841B950BAC01421B530B6EC0169670
:100F3000ED91FC911797CF01861B970BBC01615077
:100F40007109FA0177FD1BC116968D919C91179737
:100F5000681779070CF013C1F7FF04C02E0F3F1F6D
:100F6000E0E0F0E014968D919C911597AF01420F4F
:100F7000531F841795071CF49C012E1B3F0B121660
:100F800013060CF0FCC0CB0177FD079643E0959566
:100F900087954A95E1F79695982F88279795879595
:100FA000E80FF91FE050FF4F6770772781E090E06E
:100FB00001C0880F6A95EAF7482F0130110541F00A
:100FC00088F00230110509F0DAC02E0F3F1F15C05E
:100FD0002E0F3F1FE217F30709F4D1C08081842B45
:100FE0008193F8CF80952E0F3F1FE217F30709F486
:100FF000C6C0908198239193F8CFE217F30709F4C4
:10100000BEC0808184278193F8CF77FDB8C0149645
:101010008D919C911597681779070CF0B0C057FF18
:1010200004C0240F351F40E050E016968D919C912E
:101030001797FA01E20FF31F8E179F071CF49C010C
:10104000241B350B121613060CF099C0A22F842F07
:1010500086958695869590E8899F600D711D11246F
:10106000FB01E050FF4F4770A9F198E0941B492F16
:1010700050E0EA01C85FDA4F8881291790F4421BDB
:1010800051092FEF30E002C0359527954A95E2F7D8
:1010900082230130110541F068F00230110589F01A
:1010A0006EC00130110519F42081822B0CC0013073
:1010B000110520F480952081822305C0023011059E
:1010C00031F4208182278083A91708F458C0A91B16
:1010D000E058FF4FA83048F10230110559F4EF01F4
:1010E0008A2F988190959883C058DF4F8850883018
:1010F000C0F730C081E00130110509F080E0819532
:10110000EF019A2F8883C058DF4F98509830D0F75E
:1011100088EF8A0F86958695869590E8899FE00DE1
:10112000F11D1124E058FF4FA770AA2341F1B0E050
:10113000A050BB4F8C910130110529F038F00230DE
:101140001105D1F01CC09081892B18C08095908129
:10115000892314C088EF8A0F86958695869590E836
:10116000899FE00DF11D1124E058FF4FA77039F061
:10117000B0E0A050BB4F8C91908189278083DF9194
:10118000CF911F910F9108950F931F93CF93DF93EA
:10119000DC01FB0155968C915597823081F08330AC
:1011A00019F1813051F514968D919C911597BC01E0
:1011B000641B750BAB0141505109BF0181C01496EE
:1011C0006D917C911597CB018E1B9F0BFC011696A0
:1011D0008D919C911797BC01641B750BAB0141501D
:1011E0005109E21BF30B09C016966D917C9117977C
:1011F0006E1B7F0B621B730B63C057FD1CC11696E1
:101200008D919C911797481759070CF014C1F7FF5F
:1012100004C02E0F3F1FE0E0F0E014968D919C91EA
:101220001597BF01620F731F861797071CF49C0167
:101230002E1B3F0B121613060CF0FDC0CA0157FD02
:10124000079663E0959587956A95E1F79695982FAF
:10125000882797958795E80FF91FE050FF4F477053
:10126000552781E090E001C0880F4A95EAF7482FA2
:101270000130110541F088F00230110509F0DBC0A2
:101280002E0F3F1F15C02E0F3F1FE217F30709F463
:10129000D2C08081842B8193F8CF80952E0F3F1F81
:1012A000E217F30709F4C7C0908198239193F8CF10
:1012B000E217F30709F4BFC0808184278193F8CF38
:1012C00057FDB9C014968D919C91159748175907F1
:1012D0000CF0B1C077FF04C0260F371F60E070E04C
:1012E00016968D919C911797FB01E20FF31F8E17B5
:1012F0009F071CF49C01261B370B121613060CF0DB
:101300009AC0A22F862F86958695869590E8899F0C
:10131000400D511D1124FA01E050FF4F6770A9F1F3
:1013200098E0961B492F50E0EA01C85FDA4F8881A8
:10133000291790F4421B51092FEF30E002C0359578
:1013400027954A95E2F782230130110541F068F0B4
:101350000230110589F06FC00130110519F42081A8
:10136000822B0CC00130110520F48095208182234E
:1013700005C00230110531F4208182278083A9172E
:1013800008F459C0A91BE058FF4FA83048F10230BB
:10139000110559F4EF018A2F988190959883C058D0
:1013A000DF4F88508830C0F731C081E0013011052F
:1013B00009F080E08195EF019A2F8883C058DF4FB4
:1013C00098509830D0F788EF8A0F86958695869545
:1013D00060E8869FE00DF11D1124E058FF4FA770D3
:1013E000AA2349F1B0E0A050BB4F8C910130110508
:1013F00029F038F002301105D9F01DC09081892BF9
:1014000003C0809590818923808315C088EF8A0F5F
:1014100086958695869570E8879FE00DF11D1124CD
:10142000E058FF4FA77039F0B0E0A050BB4F8C914F
:1014300090818927E9CFDF91CF911F910F91089576
:10144000FC0177FD9AC080859185681779070CF0BB
:1014500094C057FD92C082859385481759070CF0B8
:101460008CC08589823009F07CC084819581DC0143
:10147000A61BB70BBD016150710986819781FC01E4
:10148000E41BF50BAF01415051090AC0813041F412
:1014900084819581841B950BAB01BC01615071095E
:1014A0002130310529F008F122303105E1F10895AC
:1014B000FA0157FD3796A3E0F595E795AA95E1F770
:1014C000F695FE2FEE27F795E7956E0F7F1FFB0130
:1014D000E050FF4F4770552781E090E001C0880F32
:1014E0004A95EAF79081892B3AC0FA0157FD379661
:1014F00023E0F595E7952A95E1F7F695FE2FEE277F
:10150000F795E7956E0F7F1FFB01E050FF4F477087
:10151000552781E090E001C0880F4A95EAF7809551
:10152000908189231CC0FA0157FD379683E0F59519
:10153000E7958A95E1F7F695FE2FEE27F795E79563
:101540006E0F7F1FFB01E050FF4F4770552781E072
:1015500090E001C0880F4A95EAF79081892780833F
:101560000895833009F092CF86819781861B970B6F
:10157000BA01AC014150510993CF089585ED809394
:10158000BC008091BC0084FDFCCF10923906089508
:101590004091BE05262F30E0240F311D2132310548
:1015A000DCF4209139062430C9F4FC0180E090E09D
:1015B000861758F43091BE052191DC01A456BA4F2C
:1015C000A30FB11D2C930196F3CF8091BE05680F38
:1015D0006093BE0580E0089581E0089582E008955B
:1015E0000895E0913B0680913A06E81730F4F0E068
:1015F000E45CF94F808190E008958FEF9FEF0895AC
:1016000090913B0680913A06981750F4E92FF0E04C
:10161000E45CF94F208130E09F5F90933B0602C06D
:101620002FEF3FEFC901089580913A0690E0209195
:101630003B06821B91090895CF92DF92EF92FF92B1
:101640000F931F93CF93DF937C01262F972F8A014F
:101650008091EF05882391F0C62FD72F6E01C40E1D
:10166000D51ECC15DD0571F06991D701ED91FC9186
:101670000190F081E02DC7010995F3CF642F822FEF
:101680000E94C80AC801DF91CF911F910F91FF906E
:10169000EF90DF90CF900895CF93DF931F92CDB757
:1016A000DEB769832091EF052223D1F02091120645
:1016B000203240F021E030E0FC013383228380E0DF
:1016C00090E015C08091F005E82FF0E0EF50FA4F60
:1016D000998190838F5F8093F0058093120605C0F7
:1016E00061E0CE0101960E94C80A81E090E00F906F
:1016F000DF91CF910895089580E090E00895FC0176
:10170000848DDF01A80FB11DA35ABF4F2C91848D8A
:1017100090E001968F739927848FA689B7892C93BF
:10172000A089B1898C9180648C93938D848D98135A
:1017300006C00288F389E02D80818F7D8083089523
:10174000EF92FF920F931F93CF93DF93EC0181E011
:10175000888F9B8D8C8D981305C0E889F9898081CD
:1017600085FD24C0F62E0B8D10E00F5F1F4F0F7309
:101770001127E02E8C8DE8120CC00FB607FCFACFB3
:10178000E889F989808185FFF5CFCE010E947F0B22
:10179000F1CF8B8DFE01E80FF11DE35AFF4FF08270
:1017A0000B8FEA89FB898081806207C0EE89FF89FF
:1017B0006083E889F98980818064808381E090E09A
:1017C000DF91CF911F910F91FF90EF900895CF93EC
:1017D000DF93EC01888D8823C9F0EA89FB89808139
:1017E00085FD05C0A889B9898C9186FD0FC00FB60B
:1017F00007FCF5CF808185FFF2CFA889B9898C914C
:1018000085FFEDCFCE010E947F0BE7CFDF91CF9117
:10181000089590E0FC01E859FA4F3491FC01EC5531
:10182000FA4F2491FC01E057FA4FE491EE2309F4BA
:101830003BC0332339F1333091F038F43130A9F023
:10184000323001F584B58F7D12C0373091F03830D9
:10185000A1F03430B9F4809180008F7D03C0809175
:1018600080008F77809380000DC084B58F7784BD12
:1018700009C08091B0008F7703C08091B0008F7D48
:101880008093B000F0E0EE0FFF1FE458FA4FA591EF
:10189000B4918FB7F894EC91611103C020952E2379
:1018A00001C02E2B2C938FBF08958F929F92AF92E1
:1018B000BF92CF92DF92EF92FF926B017C010E9468
:1018C0004E034B015C01C114D104E104F104F1F0B9
:1018D0000E944E03DC01CB0188199909AA09BB09B2
:1018E000883E9340A105B10570F321E0C21AD108EA
:1018F000E108F10888EE880E83E0981EA11CB11C57
:10190000C114D104E104F10419F7DDCFFF90EF9089
:10191000DF90CF90BF90AF909F908F9008951F92CF
:101920000F920FB60F9211242F933F938F939F9393
:10193000AF93BF938091E4059091E505A091E605F2
:10194000B091E7053091E30523E0230F2D3720F414
:101950000196A11DB11D05C026E8230F0296A11D09
:10196000B11D2093E3058093E4059093E505A093D2
:10197000E605B093E7058091E8059091E905A0910F
:10198000EA05B091EB050196A11DB11D8093E80514
:101990009093E905A093EA05B093EB05BF91AF9151
:1019A0009F918F913F912F910F900FBE0F901F909D
:1019B00018951F920F920FB60F9211242F933F93F9
:1019C0004F935F936F937F938F939F93AF93BF9347
:1019D000EF93FF938091B900887F803609F49CC013
:1019E00068F5883209F45BC090F4803109F454C082
:1019F00038F4882309F4F6C0883009F44DC0F6C0E5
:101A0000883109F44CC0803209F45DC0EFC08034E5
:101A100009F468C048F4803309F455C0883309F0EC
:101A2000E5C080933706D8C0803509F44FC08835AB
:101A300009F45DC0883409F0D9C0D6C0883909F4EA
:101A4000C7C0A8F4883709F467C038F4883609F4A9
:101A500063C0803709F460C0C9C0883809F4B8C0D1
:101A6000803909F45FC0803809F0C0C05BC0803B9A
:101A700009F486C038F4803A09F466C0883A09F45B
:101A80007FC0B4C0803C09F4A7C0883C09F4A4C05E
:101A9000883B09F48AC0AAC08091340610C0909196
:101AA000360680913506981770F5E091360681E08C
:101AB0008E0F80933606F0E0ED5EF94F80818093C3
:101AC000BB0085EC86C0809337068EC0E091360659
:101AD00081E08E0F809336068091BB00F0E0ED5ED2
:101AE000F94F808390913606809135066EC0E09163
:101AF000360681E08E0F809336068091BB00F0E0C1
:101B0000ED5EF94F80838091380681116DC081E0D0
:101B10008093330684EA61C083E080933906109293
:101B2000E205CFCF8091E205803208F051C0E0910C
:101B3000E20581E08E0F8093E2058091BB00F0E02A
:101B4000EE53FA4F8083BDCF85EC8093BC0010929A
:101B500039068091E205803230F4E091E205F0E050
:101B6000EE53FA4F10826091E20570E0E091C005FB
:101B7000F091C10582EC95E009951092E20536C01E
:101B800084E0809339061092BF051092BE05E09163
:101B9000BC05F091BD0509958091BE05811105C078
:101BA00081E08093BE0510929C05E091BF0581E025
:101BB0008E0F8093BF05F0E0E456FA4F808180934A
:101BC000BB009091BF058091BE05981708F479CFAE
:101BD00085E88093BC000AC085EC8093BC0010921D
:101BE000390604C0109237060E94BE0AFF91EF9199
:101BF000BF91AF919F918F917F916F915F914F9125
:101C00003F912F910F900FBE0F901F90189510923B
:101C1000390681E0809338061092330661E082E154
:101C20000E94090C61E083E10E94090CE9EBF0E0FD
:101C300080818E7F808380818D7F808388E4809304
:101C4000B80085E48093BC000895CF92DF92EF92B4
:101C5000FF920F931F93CF93DF936C017A018B0157
:101C6000C0E0D0E0CE15DF0589F0D8016D918D017F
:101C7000D601ED91FC910190F081E02DC60109950E
:101C8000892B11F47E0102C02196ECCFC701DF91B0
:101C9000CF911F910F91FF90EF90DF90CF9008951B
:101CA0000E9420186115710579F0FB010190002058
:101CB000E9F73197AF01461B570BDC01ED91FC9121
:101CC0000280F381E02D099480E090E008958CE596
:101CD00096E00E94380321E0892B09F420E0822F4E
:101CE00008954F925F926F927F92EF92FF920F93BF
:101CF0001F93CF93DF93CDB7DEB7A1970FB6F894BC
:101D0000DEBF0FBECDBF7C01FA01CB0119A222308C
:101D100008F42AE08E010F5D1F4F422E512C612CDA
:101D2000712CBF01A30192010E94F817F901CA01A9
:101D3000015011096A3014F4605D01C0695CD8017A
:101D40006C93232B242B252B61F7B801C7010E942C
:101D5000520EA1960FB6F894DEBF0FBECDBFDF9135
:101D6000CF911F910F91FF90EF907F906F905F90B8
:101D70004F90089560E575E00C94520EDC01ED91F2
:101D8000FC910190F081E02D09944F925F926F9247
:101D90007F928F929F92AF92BF92CF92DF92EF92FB
:101DA000FF92CF93DF93EC016A017B01B22E9A017F
:101DB000AB01C701B6010E94F317882319F063E550
:101DC00075E027C026013701E89477F82FEF3FEF41
:101DD0004FE75FE7C301B2010E94F31781110DC005
:101DE0002FEF3FEF4FE75FE7C301B2010E942916D3
:101DF00018161CF467E575E00CC02FEF3FEF4FE7B6
:101E00005FE4C701B6010E94811718169CF46BE5C8
:101E100075E0CE01DF91CF91FF90EF90DF90CF90F2
:101E2000BF90AF909F908F907F906F905F904F90FA
:101E30000C94520E2FEF3FEF4FE75FECC701B60156
:101E40000E94291687FDE3CF20E030E0A901C701F9
:101E5000B6010E94291687FF0AC06DE2CE010E94DA
:101E6000BE0E4C01F7FAF094F7F8F09402C0812C02
:101E7000912CA12C60E070E080E09FE3AB1441F076
:101E800020E030E040E251E40E942E16A394F6CF09
:101E90009B01AC01C701B6010E94BD152B013C019D
:101EA0000E94A0166B017C010E94CF169B01AC0121
:101EB000C301B2010E94BC152B013C012AE0B7010D
:101EC000A601CE010E94710E7C01E80CF91CBB201A
:101ED00031F06EE2CE010E94BE0EE80EF91EDB2C40
:101EE000DD2029F120E030E040E251E4C301B201FD
:101EF0000E9486172B013C010E94A0164B01A12CC9
:101F0000B12C2AE0B501A401CE010E94710EE80EA9
:101F1000F91EC501B4010E94CF169B01AC01C3019B
:101F2000B2010E94BC152B013C01DA94D9CFC70144
:101F3000DF91CF91FF90EF90DF90CF90BF90AF9067
:101F40009F908F907F906F905F904F9008951F9219
:101F50000F920FB60F9211242F933F934F935F93DD
:101F60006F937F938F939F93AF93BF93EF93FF9361
:101F70008CE596E00E947F0BFF91EF91BF91AF91AE
:101F80009F918F917F916F915F914F913F912F9191
:101F90000F900FBE0F901F9018951F920F920FB6C3
:101FA0000F9211242F938F939F93EF93FF93E091C0
:101FB0006C06F0916D068081E0917206F0917306D7
:101FC00082FD12C09081809175068F5F8F73209182
:101FD0007606821751F0E0917506F0E0E45AF94F69
:101FE000958F8093750601C08081FF91EF919F913D
:101FF0008F912F910F900FBE0F901F901895909179
:1020000039069111FCCF613208F060E291E09093C3
:102010003906909338062FEF209337061092360634
:10202000260F209335069093340690913406880F3E
:10203000892B8093340680913306813061F41092AD
:102040003306809134068093BB008091BC0083FDF1
:10205000F8CF85EC01C085EE8093BC0080913906F5
:102060008130E1F380913606861710F460913606D0
:10207000A3E1B6E02CE336E0F9018E2F821B861730
:1020800018F48D918193F9CF10923B0660933A0634
:10209000862F08952091120690911106213208F0A2
:1020A0004AC0809139068111FCCF32E03093390665
:1020B00031E0309338063FEF309337061092360602
:1020C00020933506A1EFB5E043E156E0FA013E2F3B
:1020D000341B321718F43D913193F9CF1092340626
:1020E00020913406990F922B9093340690913306E9
:1020F000913061F410923306909134069093BB00B6
:102100009091BC0093FDF8CF95EC01C095EE9093B3
:10211000BC00909139069230E1F3909137069F3FD1
:1021200079F080913706803241F080913706803314
:1021300031F084E005C081E003C082E001C083E0AB
:102140001092F005109212061092EF050895682F74
:1021500089EF96E00C944C0B90912E07992339F05F
:102160008EBD00000DB407FEFDCF8EB5089528E0AA
:1021700030E040E8E0913107F091320750819091D2
:102180003807909595239083E0912F07F0913007C1
:1021900090913707542F582319F05081952B03C085
:1021A0005081909595239083E0913107F09132070B
:1021B000508190913807952B908346952150310995
:1021C000C9F60895CF93C82F809129078F3F59F101
:1021D000E0913307F0913407808190913907982B73
:1021E0009083E0913507F0913607208190913A076E
:1021F000909592239083E0913307F09134072081EA
:10220000909139079095922390838C2F0E94AC1067
:10221000E0913307F0913407908180913907892B41
:102220008083CF9108958091270791E09093EF05E7
:10223000809311061092F0051092120660E089EF6B
:1022400096E00E944C0B6C2F89EF96E00E944C0B9D
:10225000CF910C944A1090E0FC01EC55FA4F249178
:10226000FC01E057FA4F8491882399F090E0880FA1
:10227000991FFC01EA57FA4FA591B491FC01E4586B
:10228000FA4F859194918FB7F894EC91E22BEC93EF
:102290008FBF0895CF92DF92EF92FF92CF93DF939B
:1022A0006C01990FEE08FF08F7FE16C06DE28DE095
:1022B00097E00E94BE0EEC0144275527BA014C1945
:1022C0005D096E097F092AE08DE097E00E94710E9A
:1022D0007C01EC0EFD1E08C02AE0B701A6018DE0CE
:1022E00097E00E94710E7C018DE097E00E94BA0E8B
:1022F0008E0D9F1DDF91CF91FF90EF90DF90CF90DB
:102300000895789484B5826084BD84B5816084BD6D
:1023100085B5826085BD85B5816085BD80916E0083
:10232000816080936E0010928100809181008260B4
:1023300080938100809181008160809381008091F1
:1023400080008160809380008091B10084608093E0
:10235000B1008091B00081608093B00080917A00DC
:10236000846080937A0080917A00826080937A0002
:1023700080917A00816080937A0080917A008068F1
:1023800080937A001092C100E0916C06F0916D0686
:1023900092E09083E0916806F09169061082E091E6
:1023A0006A06F0916B068FEC808310927406E091C0
:1023B0007006F091710686E08083E0916E06F091E0
:1023C0006F06808180618083E0916E06F0916F06D8
:1023D000808188608083E0916E06F0916F06808135
:1023E00080688083E0916E06F0916F0680818F7D1A
:1023F0008083909328078CE3809327078091290797
:102400008F3F09F4B6C080912B070E942B11809159
:102410002D070E942B1180912D07082E000C990B7F
:10242000FC01E057FA4FE491F0E0EE0FFF1FE45893
:10243000FA4F259134913093340720933307FC01F0
:10244000EC55FA4FE491E093390780912B07082E61
:10245000000C990BFC01E057FA4FE491F0E0EE0F0D
:10246000FF1FE458FA4F259134913093360720939B
:102470003507FC01EC55FA4FE491E0933A0780915F
:102480002E0781113CC0809129070E942B11809159
:102490002A070E942B1180912A07082E000C990B05
:1024A000FC01E057FA4FE491F0E0EE0FFF1FE45813
:1024B000FA4F259134913093320720933107FC0174
:1024C000EC55FA4FE491E093380780912907082EE4
:1024D000000C990BFC01E057FA4FE491F0E0EE0F8D
:1024E000FF1FE458FA4F2591349130933007209321
:1024F0002F07FC01EC55FA4FE491E09337078091E8
:102500002E07882309F43FC0CFB7F8948091EC05DB
:10251000811124C0EAE9F5E08491EEEAF5E09491B6
:10252000E82FF0E0EE0FFF1FEA57FA4FA591B491A4
:10253000EC91E92321F461E08AE00E94090C8AE031
:102540000E942B118CB580618CBD8CB580648CBDD4
:102550008DE00E942B118BE00E942B118091EC05E5
:102560008F5F8093EC05CFBF80E58CBD81E08DBD92
:102570000AC010923B0610923A061092F005109293
:1025800012060E94070E80912C0787FD1DC00E9435
:102590002B1161E080912C070E94090C61E070E032
:1025A00080E090E00E94550C60E080912C070E9432
:1025B000090C6AE070E080E090E00E94550C61E058
:1025C00080912C070E94090C8EEA0E94E21085ED92
:1025D0000E94E21080E80E94E21088EA0E94E21065
:1025E0008FE30E94E21083ED0E94E21080E00E94DF
:1025F000E21080E40E94E2108DE80E94E21084E183
:102600000E94E21080E20E94E21080E00E94E2104C
:1026100081EA0E94E21088EC0E94E2108AED0E949A
:10262000E21082E10E94E21081E80E94E2108FEC49
:102630000E94E21089ED0E94E21081EF0E94E210F8
:102640008BED0E94E21080E40E94E21084EA0E9476
:10265000E21086EA0E94E2108EE20E94E2108FEA07
:102660000E94E21010923B0610923A061092F0057A
:10267000109212060E94070ED1E0D093EF05C0E43D
:10268000C09311061092F005109212068EEF90E0A2
:102690000E94A7100E944A106FE070E080E090E076
:1026A0000E94550CD093EF05C09311061092F005CF
:1026B0001092120687EE90E00E94A7100E944A1026
:1026C00061E080E40E94FF0F89EF96E00E94000B1A
:1026D000029759F06FE575E08CE596E00E94520E86
:1026E0008CE596E00E94BA0EFFCF80E094E0E0E037
:1026F000F1E0DF019C011D9221503040E1F74424BC
:102700004394EE24E394F12CA12C94E0B92E409252
:10271000EF0530E4309311061092F0051092120686
:1027200083EE90E00E94A7100E944A1062E370E0DE
:1027300080E090E00E94550C63E080E40E94FF0F6F
:102740008330C1F589EF96E00E94000B182F00E05E
:1027500089EF96E00E94000B8C7F9927EC01C02B3B
:10276000D12B89EF96E00E94000BBE0180E090E043
:102770000E94CF1622E538EB4FE253E40E94861701
:1027800020E030E040E857E30E94861726E636E670
:102790004BE352E40E94BC151B01AB01BC0140930A
:1027A000090750930A0760930B0770930C07582E84
:1027B000D92F04C0212C312C512CD0E04092EF05B0
:1027C00080E4809311061092F0051092120685EEB7
:1027D00090E00E94A7100E944A1062E370E080E03F
:1027E00090E00E94550C63E080E40E94FF0F83306C
:1027F000D9F589EF96E00E94000B982E812C89EF85
:1028000096E00E94000B8C7F99273C01682879286C
:1028100089EF96E00E94000BB30180E090E00E94F7
:10282000CF1620E030E04AEF52E40E94861720E005
:1028300030E040E857E30E94861720E030E040ECAB
:1028400050E40E94BC15362F672E462F572FBC012F
:102850004093050750930607609307077093080796
:10286000D32E782EC92F04C0D12C612C712CC0E03E
:1028700065E775E08CE596E00E94520E22E0A1012A
:10288000652D7D2F8CE596E00E94C50E6BE775E007
:102890008CE596E00E94520E6FE775E08CE596E0BD
:1028A0000E94520E22E04D2D562D672D7C2F8CE577
:1028B00096E00E94C50E69E875E08CE596E00E94FE
:1028C000520E8CE596E00E94BA0E82E080932107BA
:1028D000F0922007E0921F07F0921E07E0921D077A
:1028E00010921A071092190710921C0710921B07DA
:1028F0006CE875E08DE097E00E94520E82E090E077
:102900000E944A11409221078DE097E00E94BA0E82
:1029100065E775E08DE097E00E94520E22E0A1018C
:10292000652D7D2F8DE097E00E94C50E8DE097E02C
:102930000E94BA0E8DE097E00E94BA0E6FE775E034
:102940008DE097E00E94520E22E04D2D562D672D0E
:102950007C2F8DE097E00E94C50E8DE097E00E94ED
:10296000BA0E8DE097E00E94BA0E66E975E08DE040
:1029700097E00E94520E8091ED059091EE050E9425
:102980004A1181E20E94E21080E00E94E2108FE78B
:102990000E94E21082E20E94E21080E00E94E210B7
:1029A00087E00E94E210809129078F3F79F1E09142
:1029B0003307F0913407908180913907892B808308
:1029C000E0913507F0913607908180913A07892B85
:1029D0008083E0913307F09134079081809139072B
:1029E000809589238083C0E0D1E089910E94AC105A
:1029F00095E0C030D907C9F7E0913307F09134076B
:102A0000908180913907892B80832FC05090B80026
:102A1000ACE0A093B800C0E0D1E0809127074092DD
:102A2000EF05809311061092F0051092120680E4D3
:102A300090E00E94A710612C712CFE01E60DF71D9D
:102A4000608189EF96E00E944C0BBFEF6B1A7B0A06
:102A5000E0E16E16710489F70E944A106096F5E075
:102A6000C030DF07D1F65092B800A0E0B1E0F50128
:102A70001D923197E9F764EF71E080E090E00E94E9
:102A8000550C8091ED059091EE0501969093EE0521
:102A90008093ED050E9444033ACEECE5F6E0138204
:102AA000128288EE93E0A0E0B0E084839583A68351
:102AB000B78324E135E03183208325EC30E035878E
:102AC000248724EC30E03787268720EC30E0318BF8
:102AD000208B21EC30E0338B228B22EC30E0358BE5
:102AE000248B26EC30E0378B268B118E128E138EC2
:102AF000148EE9EFF6E01382128284839583A68315
:102B0000B78386E295E091838083EDE0F7E013825E
:102B1000128220E830E03583248380E490E09783BC
:102B200086833187208793878287158A1586148646
:102B30001786168681E0848B2FEF3FEF338B228B35
:102B4000318B208B868B178A118E108E88E395E04F
:102B5000918380838FEF848F80A3868F858F84E01D
:102B6000878FE5E0F7E010821182128213821482CF
:102B700015821682178208955058BB27AA270E94F3
:102B8000D4150C9447170E94391738F00E9440174B
:102B900020F039F49F3F19F426F40C9436170EF404
:102BA000E095E7FB0C943017E92F0E94581758F373
:102BB000BA17620773078407950720F079F4A6F522
:102BC0000C947A170EF4E0950B2EBA2FA02D0B0162
:102BD000B90190010C01CA01A0011124FF27591B62
:102BE00099F0593F50F4503E68F11A16F040A22F68
:102BF000232F342F4427585FF3CF469537952795D9
:102C0000A795F0405395C9F77EF41F16BA0B620BD7
:102C1000730B840BBAF09150A1F0FF0FBB1F661F1E
:102C2000771F881FC2F70EC0BA0F621F731F841F61
:102C300048F4879577956795B795F7959E3F08F087
:102C4000B0CF9395880F08F09927EE0F9795879549
:102C500008950E940C1708F481E008950E9442161E
:102C60000C9447170E94401758F00E94391740F003
:102C700029F45F3F29F00C94301751110C947B1705
:102C80000C9436170E94581768F39923B1F3552313
:102C900091F3951B550BBB27AA276217730784076F
:102CA00038F09F5F5F4F220F331F441FAA1FA9F305
:102CB00035D00E2E3AF0E0E832D091505040E695F3
:102CC000001CCAF72BD0FE2F29D0660F771F881F54
:102CD000BB1F261737074807AB07B0E809F0BB0B47
:102CE000802DBF01FF2793585F4F3AF09E3F51055B
:102CF00078F00C9430170C947B175F3FE4F3983E08
:102D0000D4F3869577956795B795F7959F5FC9F743
:102D1000880F911D9695879597F90895E1E0660FC4
:102D2000771F881FBB1F621773078407BA0720F03D
:102D3000621B730B840BBA0BEE1F88F7E0950895A6
:102D40000E94601788F09F5798F0B92F9927B751C4
:102D5000B0F0E1F0660F771F881F991F1AF0BA953F
:102D6000C9F714C0B13091F00E947A17B1E008950C
:102D70000C947A17672F782F8827B85F39F0B93FFE
:102D8000CCF3869577956795B395D9F73EF49095F2
:102D90008095709561957F4F8F4F9F4F0895E89470
:102DA00009C097FB3EF490958095709561957F4F93
:102DB0008F4F9F4F9923A9F0F92F96E9BB27939541
:102DC000F695879577956795B795F111F8CFFAF451
:102DD000BB0F11F460FF1BC06F5F7F4F8F4F9F4F82
:102DE00016C0882311F096E911C0772321F09EE8E0
:102DF000872F762F05C0662371F096E8862F70E046
:102E000060E02AF09A95660F771F881FDAF7880F1F
:102E10009695879597F90895990F0008550FAA0B75
:102E2000E0E8FEEF16161706E807F907C0F01216DD
:102E30001306E407F50798F0621B730B840B950BE0
:102E400039F40A2661F0232B242B252B21F4089535
:102E50000A2609F4A140A6958FEF811D811D0895D2
:102E600097F99F6780E870E060E008959FEF80EC3D
:102E7000089500240A9416161706180609060895E0
:102E800000240A9412161306140605060895092E46
:102E90000394000C11F4882352F0BB0F40F4BF2BB5
:102EA00011F460FF04C06F5F7F4F8F4F9F4F0895F5
:102EB00057FD9058440F551F59F05F3F71F04795EB
:102EC000880F97FB991F61F09F3F79F087950895D0
:102ED000121613061406551FF2CF4695F1DF08C0EF
:102EE000161617061806991FF1CF8695710561050C
:102EF00008940895E894BB2766277727CB0197F9B4
:102F000008950E940C1708F48FEF08950E949917F6
:102F10000C9447170E94391738F00E94401720F090
:102F2000952311F00C9430170C94361711240C943F
:102F30007B170E94581770F3959FC1F3950F50E0CF
:102F4000551F629FF001729FBB27F00DB11D639F5B
:102F5000AA27F00DB11DAA1F649F6627B00DA11D01
:102F6000661F829F2227B00DA11D621F739FB00DA7
:102F7000A11D621F839FA00D611D221F749F332717
:102F8000A00D611D231F849F600D211D822F762FB0
:102F90006A2F11249F5750409AF0F1F088234AF08D
:102FA000EE0FFF1FBB1F661F771F881F91505040F9
:102FB000A9F79E3F510580F00C9430170C947B17B5
:102FC0005F3FE4F3983ED4F3869577956795B79580
:102FD000F795E7959F5FC1F7FE2B880F911D96959A
:102FE000879597F908950E940C17880B990B0895FF
:102FF000A1E21A2EAA1BBB1BFD010DC0AA1FBB1FFD
:10300000EE1FFF1FA217B307E407F50720F0A21B6E
:10301000B30BE40BF50B661F771F881F991F1A94DB
:1030200069F760957095809590959B01AC01BD0105
:10303000CF010895EE0FFF1F0590F491E02D099444
:0E30400081E090E0F8940C942518F894FFCFEE
:10304E000000000000000000000000000000000072
:10305E000000000000000000000000000000000062
:10306E000000000000000000000000000000000052
:10307E0000000000000000000000000000000080C2
:10308E008080000000000000000000000000000032
:10309E00008080C0C00000000000000000000000A2
:1030AE000000000000000000000000000000000012
:1030BE000000000000000000000000000000000002
:1030CE0000000000000000000000000000000000F2
:1030DE000000000080C0E0F0F8FCF8E00000000006
:1030EE000000000000000000000000000080808052
:1030FE00808000808000000000808080808000FF43
:10310E00FFFF0000000080808080000080800000B3
:10311E0080FFFF8080008080008080808000808023
:10312E000000000000808000008C8E84000080F87B
:10313E00F8F8800000000000000000000000000011
:10314E00F0F0F0F0F0F0F0F0F0F0F0F0E0E0C08031
:10315E0000E0FCFEFFFFFF7FFFFFFFFFFF00000010
:10316E000000000000000000000000FEFFC701018B
:10317E00010183FFFF00007CFEC70101010183FFF7
:10318E00FFFF0038FEC78301010183C7FFFF000068
:10319E0001FFFF010100FFFF0701010100007FFF9A
:1031AE0080000000FFFF7F0000FFFFFF000001FF17
:1031BE00FFFF010000000000000000000000000002
:1031CE00030F3F7F7FFFFFFFFFFFFFFFE7C7C78FA5
:1031DE008F9FBFFFFFC3C0F0FFFFFFFFFFFCFCFC94
:1031EE00FCFCFCFCFCF8F8F0F0E0C000010303036B
:1031FE0003030103030000000001030303030101A5
:10320E000301000000010303030301010303000097
:10321E000003030000000303000000000000000193
:10322E000303030303010000000103010000000378
:10323E00030100000000000000000000000000007C
:10324E0000000080C0E0F0F9FFFFFFFFFF3F1F0FFF
:10325E0087C7F7FFFF1F1F3DFCF8F8F8F87C7DFFCE
:10326E00FFFFFFFFFFFFFF7F3F0F07003030000023
:10327E000000000000000000000000000000000040
:10328E0000000000FEFEFC00000000000000000038
:10329E0000000000000000000000000000E0C00080
:1032AE0000000000000000000000303000000000B0
:1032BE000000000000000000000000000000000000
:1032CE0000C0FEFFFFFFFFFFFFFFFFFF7F7F3F1FDF
:1032DE000F071F7FFFFFF8F8FFFFFFFFFFFEF8E06D
:1032EE00000000010000000000000000FEFE0000D3
:1032FE0000FCFEFC0C06060EFCF80000F0F81C0E9E
:10330E000606060CFFFFFF0000FEFE00000000FC9C
:10331E00FEFC00183C7E66E6CE84000006FFFF062B
:10332E0006FCFEFC0C0606060000FEFE0000C0F8C1
:10333E00FC4E4646464E7C7840183C76E6CECC8017
:10334E00000000000000000000000000000000006F
:10335E000000000001070F1F1F3F3F3F3F1F0F03DD
:10336E000000000000000000000000000F0F000031
:10337E00000F0F0F000000000F0F000003070E0CD0
:10338E0018180C060F0F0F0000010F0E0C180C0F63
:10339E00070100040E0C180C0F070000000F0F00A1
:1033AE00000F0F0F0000000000000F0F00000007BD
:1033BE00070C0C181C0C060600040E0C180C0F073C
:1033CE0000000000000000000000000000000000EF
:1033DE0000000000000000000000000000000000DF
:1033EE0000000000000000000000000000000000CF
:1033FE0000000000000000000000000000000000BF
:10340E0000000000000000000000000000000000AE
:10341E00000000000000000000000000000000009E
:10342E00000000000000000000000000000000008E
:10343E00000000000000000000000000000000007E
:10344E00000103070F1F3F7F0080C0E0F0F8FCFE75
:10345E0000000000A00B250E0703E70B3803160330
:10346E002A03000000004C0B1C0B7C0BF00A140B03
:10347E00000BF10A000000001A05250E7C0B7B0BD9
:10348E00200AC0066A07C40871060F06F105730309
:10349E000D0A006E616E00696E66006F76660043FF
:1034AE006F756C646E27742066696E642073656E2A
:1034BE00736F72210054656D703A0020432C0048E2
:1034CE00756D69646974793A0020250076657273AA
:0C34DE00696F6E3A20004C4F4F503A00CE
:107E0000112484B714BE81FFF0D085E080938100F7
:107E100082E08093C00088E18093C10086E0809377
:107E2000C20080E18093C4008EE0C9D0259A86E02C
:107E300020E33CEF91E0309385002093840096BBD3
:107E4000B09BFECF1D9AA8958150A9F7CC24DD24C4
:107E500088248394B5E0AB2EA1E19A2EF3E0BF2EE7
:107E6000A2D0813461F49FD0082FAFD0023811F036
:107E7000013811F484E001C083E08DD089C08234E0
:107E800011F484E103C0853419F485E0A6D080C0E4
:107E9000853579F488D0E82EFF2485D0082F10E0AE
:107EA000102F00270E291F29000F111F8ED06801E7
:107EB0006FC0863521F484E090D080E0DECF843638
:107EC00009F040C070D06FD0082F6DD080E0C81688
:107ED00080E7D80618F4F601B7BEE895C0E0D1E017
:107EE00062D089930C17E1F7F0E0CF16F0E7DF06D8
:107EF00018F0F601B7BEE89568D007B600FCFDCFD4
:107F0000A601A0E0B1E02C9130E011968C91119780
:107F100090E0982F8827822B932B1296FA010C0160
:107F200087BEE89511244E5F5F4FF1E0A038BF0790
:107F300051F7F601A7BEE89507B600FCFDCF97BE46
:107F4000E89526C08437B1F42ED02DD0F82E2BD052
:107F50003CD0F601EF2C8F010F5F1F4F84911BD097
:107F6000EA94F801C1F70894C11CD11CFA94CF0C13
:107F7000D11C0EC0853739F428D08EE10CD085E9AC
:107F80000AD08FE07ACF813511F488E018D01DD067
:107F900080E101D065CF982F8091C00085FFFCCF94
:107FA0009093C60008958091C00087FFFCCF809118
:107FB000C00084FD01C0A8958091C6000895E0E648
:107FC000F0E098E1908380830895EDDF803219F02E
:107FD00088E0F5DFFFCF84E1DECF1F93182FE3DFCA
:107FE0001150E9F7F2DF1F91089580E0E8DFEE27F6
:047FF000FF270994CA
:027FFE00040479
:0400000300007E007B
:00000001FF
