:1000000087C30000B6C30000B4C30000B2C3000041
:10001000B0C30000AEC30000ACC30000AAC3000020
:10002000A8C30000A6C30000A4C30000A2C3000030
:10003000A0C300009EC300009CC300009AC3000040
:1000400098C3000096C3000094C3000092C3000050
:1000500090C300008EC300008CC300000C94180EE7
:1000600088C300000C942B0D0C94010D82C300007A
:1000700080C300007EC300007CC300007AC3000080
:1000800078C3000076C3000074C3000072C3000090
:1000900070C300006EC300006CC300000C94620EBD
:1000A00068C3000066C3000064C3000062C30000B0
:1000B00060C300005EC300005CC300005AC30000C0
:1000C00058C3000056C3000054C3000052C30000D0
:1000D00050C300004EC300004CC300004AC30000E0
:1000E00048C30000900D930D820D860D8A0DCA0D38
:1000F000970D9B0DA10DA50DA90DAF0DB30DB70D5E
:10010000CA0DBD0DC10DC50D00000000003E5B4FC6
:100110005B3E3E6B4F6B3E1C3E7C3E1C183C7E3C67
:10012000181C577D571C1C5E7F5E1C00183C180075
:10013000FFE7C3E7FF0018241800FFE7DBE7FF3005
:10014000483A060E2629792926407F050507407F73
:1001500005253F5A3CE73C5A7F3E1C1C08081C1CE6
:100160003E7F14227F22145F5F005F5F06097F01DC
:100170007F006689956A606060606094A2FFA294C7
:1001800008047E040810207E201008082A1C080895
:100190001C2A08081E101010100C1E0C1E0C3038E3
:1001A0003E3830060E3E0E06000000000000005FE4
:1001B00000000007000700147F147F14242A7F2A00
:1001C00012231308646236495620500008070300C2
:1001D000001C2241000041221C002A1C7F1C2A080E
:1001E000083E080800807030000808080808000071
:1001F00060600020100804023E5149453E00427FE5
:10020000400072494949462141494D331814127F33
:100210001027454545393C4A4949314121110907D3
:100220003649494936464949291E00001400000054
:100230004034000000081422411414141414004126
:1002400022140802015909063E415D594E7C1211E3
:10025000127C7F494949363E414141227F4141411B
:100260003E7F494949417F090909013E4141517396
:100270007F0808087F00417F41002040413F017F07
:10028000081422417F404040407F021C027F7F04CF
:1002900008107F3E4141413E7F090909063E415118
:1002A000215E7F09192946264949493203017F0108
:1002B000033F4040403F1F2040201F3F4038403F09
:1002C000631408146303047804036159494D43001F
:1002D0007F4141410204081020004141417F040256
:1002E00001020440404040400003070800205454ED
:1002F00078407F28444438384444442838444428CB
:100300007F385454541800087E090218A4A49C781D
:100310007F0804047800447D40002040403D007F79
:100320001028440000417F40007C047804787C0859
:100330000404783844444438FC182424181824242D
:1003400018FC7C08040408485454542404043F4412
:10035000243C4040207C1C2040201C3C4030403C41
:1003600044281028444C9090907C4464544C4400A1
:100370000836410000007700000041360800020105
:100380000204023C2623263C1EA1A161123A4040F1
:10039000207A38545455592155557941225454786E
:1003A00042215554784020545579400C1E52721207
:1003B0003955555559395454545939555454580090
:1003C00000457C410002457D420001457C407D1294
:1003D00011127DF0282528F07C54554500205454F6
:1003E0007C547C0A097F4932494949323A444444A1
:1003F0003A324A4848303A4141217A3A42402078DC
:10040000009DA0A07D3D4242423D3D4040403D3CDC
:1004100024FF2424487E4943662B2FFC2F2BFF0901
:1004200029F620C0887E09032054547941000044F5
:100430007D413048484A32384040227A007A0A0AE0
:10044000727D0D19317D2629292F28262929292653
:1004500030484D4020380808080808080808382F98
:1004600010C8ACBA2F102834FA00007B0000081422
:100470002A142222142A14085500550055AA55AAF8
:1004800055AAFF55FF55FF000000FF00101010FF98
:1004900000141414FF001010FF00FF1010F010F0F3
:1004A000141414FC001414F700FF0000FF00FF14E4
:1004B00014F404FC141417101F10101F101F141430
:1004C000141F00101010F0000000001F101010107A
:1004D0001F10101010F010000000FF10101010106E
:1004E00010101010FF10000000FF140000FF00FFAC
:1004F00000001F10170000FC04F414141710171448
:1005000014F404F40000FF00F71414141414141469
:10051000F700F7141414171410101F101F141414DC
:10052000F4141010F010F000001F101F0000001F46
:1005300014000000FC140000F010F01010FF10FF79
:10054000141414FF141010101F00000000F010FF0E
:10055000FFFFFFFFF0F0F0F0F0FFFFFF00000000F2
:1005600000FFFF0F0F0F0F0F3844443844FC4A4A76
:100570004A347E02020606027E027E02635549412B
:10058000633844443C04407E201E2006027E020262
:1005900099A5E7A5991C2A492A1C4C7201724C3076
:1005A0004A4D4D303048784830BC625A463D3E494D
:1005B0004949007E0101017E2A2A2A2A2A44445FF1
:1005C000444440514A444040444A51400000FF01E5
:1005D00003E080FF000008086B6B083612362436F3
:1005E000060F090F06000018180000001010003058
:1005F00040FF0101001F01011E00191D1712003CE0
:100600003C3C3C000000000000000A0B02090C0DFD
:100610000E080703040100000000000000000000B5
:1006200000000000000000000000000000000000CA
:100630000000000012111000000000000000000087
:1006400000000000000000000000000000000000AA
:100650002200250028002B002E003100340002016A
:100660000000050108010B01000021002400270003
:100670002A002D00300033000101000004010701B1
:100680000A01050505050705080808080202020217
:100690000A0A08080404040401010101010101011E
:1006A0000303030303030303040707070C0C0C0CE9
:1006B0000C0C0C0C020202020606060606060606D2
:1006C0000B0B0B0B0B0B0B0B01021020200808105F
:1006D00020401020408002010201080402010102B2
:1006E000040810204080804020100804020180048B
:1006F00002018040201008040201080402010102E6
:100700000408102040800102040810204080881650
:1007100011241FBECFEFD1E2DEBFCDBF00E00CBF82
:1007200016E0A0E0B2E0E2E8F2E300E00BBF02C0B6
:1007300007900D92AA3DB107D9F728E0AAEDB6E0DF
:1007400001C01D92A937B207E1F713E0C8E8D3E072
:1007500000E006C021970109802FFE010E94331995
:10076000C738D10780E00807A9F70E9479120C94D6
:100770003F1946CCFC01538D448D252F30E0842F4A
:1007800090E0821B930B541710F0CF9608950197B9
:100790000895FC01918D828D981761F0828DDF01A3
:1007A000A80FB11D5D968C91928D9F5F9F73928F64
:1007B00090E008958FEF9FEF0895FC01918D828D59
:1007C000981731F0828DE80FF11D858D90E0089526
:1007D0008FEF9FEF0895FC01918D228D892F90E07E
:1007E000805C9F4F821B91098F73992708958AE936
:1007F00097E0F1DF21E0892B09F420E0822F0895B2
:10080000FC01848DDF01A80FB11DA35ABF4F2C91AD
:10081000848D90E001968F739927848FA689B7897C
:100820002C93A089B1898C9180648C93938D848D55
:10083000981306C00288F389E02D80818F7D808324
:100840000895EF92FF920F931F93CF93DF93EC01E4
:1008500081E0888F9B8D8C8D981305C0E889F9897C
:10086000808185FD23C0F62E0B8D10E00F5F1F4F9A
:100870000F731127E02E8C8DE8120BC00FB607FC0A
:10088000FACFE889F989808185FFF5CFCE01B8DFFD
:10089000F2CF8B8DFE01E80FF11DE35AFF4FF0827E
:1008A0000B8FEA89FB898081806207C0EE89FF890E
:1008B0006083E889F98980818064808381E090E0A9
:1008C000DF91CF911F910F91FF90EF900895CF93FB
:1008D000DF93EC01888D8823C1F0EA89FB89808150
:1008E00085FD05C0A889B9898C9186FD0EC00FB61B
:1008F00007FCF5CF808185FFF2CFA889B9898C915B
:1009000085FFEDCFCE017CDFE8CFDF91CF91089559
:1009100080E090E0892B19F06ADF811125C080E02A
:1009200090E0892B41F080E090E0892B21F00E943B
:10093000000081111CC080E090E0892B41F080E034
:1009400090E0892B21F00E940000811113C080E00B
:1009500090E0892BA1F080E090E0892B81F00E944B
:10096000000081110AC008950E940000D8CF0E94A3
:100970000000E1CF0E940000EACF0C94000008952F
:100980003FB7F8948091260790912707A0912807F8
:10099000B091290726B5A89B05C02F3F19F00196F5
:1009A000A11DB11D3FBFBA2FA92F982F8827820FF5
:1009B000911DA11DB11DBC01CD0142E0660F771F45
:1009C000881F991F4A95D1F7089508952F923F9255
:1009D0004F925F926F927F928F929F92AF92BF924F
:1009E000CF92DF92EF92FF920F931F93CF93DF93FB
:1009F000CDB7DEB76B970FB6F894DEBF0FBECDBF95
:100A00004C015A8349831F830E83FD82EC82CB8283
:100A1000DC0158964D915C9159974115510509F0AB
:100A2000A5C018968D919C911997681779070CF0BD
:100A30005AC11A968D919C911B97E981FA81E8170A
:100A4000F9070CF050C1D12CCB013B81F6E03F9F60
:100A5000800D911D1124181619060CF044C1C60111
:100A600033E0880F991F3A95E1F749815A81840F45
:100A7000951F181619060CF036C157968C918111E6
:100A800003C0203B08F02F5F55E0259F9001112403
:100A90007E876D875B01212CC901861B970B998787
:100AA0008887A981BA811896BB87AA87B5E02B16DB
:100AB00041F0E885F985EA0DFB1DE85FFE4F3490B3
:100AC00001C0312C69807A80230130FE12C0D4012C
:100AD000ED91FC91BB81B13031F40084F185E02DC2
:100AE0002E813F8118C00288F389E02DEE80FF80BF
:100AF0001CC0EC81FD812E813F81E217F307E1F0FC
:100B0000D401ED91FC91BB81B13051F40084F185A9
:100B1000E02D2C813D81A301B501C40119950CC0C4
:100B20000288F389E02DEC80FD8086019601A20108
:100B30006D857E85C40119953694EFEF6E1A7E0A95
:100B40004C0C5D1C2A853B856216730609F0BDCFEF
:100B500023943FEFA31AB30A4D855E854C0D5D1DAE
:100B60005E874D8756E02512A1CFBDC0FA013496AD
:100B70003491329785919491231BA7E02A9F800D91
:100B8000911D1124FA01259134913A8B298BFC0196
:100B900025903490FC0132963491388731964491F7
:100BA0004C873196E491FC013596A491319684915D
:100BB0005B81523050F06A2E0A2E000C7708E82F25
:100BC000082E000CFF0BFB87EA87FB81CF2ED12C70
:100BD0006C9C90016D9C300D7C9C300D1124A90102
:100BE000460F571F588B4F871C82A12CEA2FAA0F44
:100BF000FF0B3B016E0E7F1E5885650F711DDB01DB
:100C0000AE0FBF1FBF8BAE8BE981FA81E80FF11DDC
:100C100087FDFA95F98FE88F9C85A91608F063C0C7
:100C20008A2D90E04A855B85480F591F4C9D9001A5
:100C30004D9D300D5C9D300D1124A981BA81A20F0C
:100C4000B31FBE87AD877B8E6A8E4F845888BC8168
:100C5000B619BB8BE88DF98DE80FF91FFD8BEC8B76
:100C60008B89FA8D8F0F2A8D3B8D4E895F892417D2
:100C7000350799F1877041F4C1010196E989FA8934
:100C8000E20DF31DB4901C01B7FE1EC0D401ED911E
:100C9000FC91BB81B13061F40084F185E02D2E819F
:100CA0003F814C895D896A8D7B8DC40119950CC08B
:100CB0000288F389E02DEE80FF80860196014D8544
:100CC0005E85B201C4011995BB0CEA8DFB8D31968E
:100CD000FB8FEA8F4C0C5D1CC3CF5C818885580F5D
:100CE0005C83A39499CF6B960FB6F894DEBF0FBECA
:100CF000CDBFDF91CF911F910F91FF90EF90DF90CB
:100D0000CF90BF90AF909F908F907F906F905F90AB
:100D10004F903F902F900895AF92BF92CF92EF9255
:100D2000FF920F931F93CF93DF93EC01262F888DB3
:100D3000998D009709F041C06A3069F42C898E853D
:100D40009F8538E0239F800D911D11249F878E87FA
:100D50001D861C86AAC06D3009F4A7C08E89882321
:100D6000C1F03C898C859D8546E0349F800D911DA6
:100D7000112448855985841795075CF01D861C86CB
:100D80008E859F85E8E03E9F800D911D11249F87F1
:100D90008E87EA88FB88088919894E855F856C856E
:100DA0007D85CC88CE0112DE2C898C859D85F6E070
:100DB0002F9F800D911D112441C06A3079F41D864A
:100DC0001C862C89FC013696E4918E859F852E9F8A
:100DD000800D911D11249F878E8767C06D3009F4A7
:100DE00064C0AC014C5F5F4FFA013491631708F4A3
:100DF0005CC03196E491E61708F457C0FA014491BB
:100E0000362F341BFC013296A590B490F7E03F9F3B
:100E1000A00CB11C1124F501329634913196E49165
:100E2000332311F0E1110DC0F5013496E4912C89C2
:100E30008C859D85E29F800D911D11249D878C8757
:100E400034C0F501359644915E89552311F16C89C2
:100E5000E32FF0E0E40FF11D47FDFA956E9FD001FE
:100E60006F9FB00D11244C855D854A0F5B1FE8858F
:100E7000F9854E175F076CF01D861C86FC013696BF
:100E8000E4918E859F856E9F800D911D11249F8713
:100E90008E87EA88FB88088919894E855F856C856D
:100EA0007D85CC88CE0192DDBFCF81E090E0DF91DF
:100EB000CF911F910F91FF90EF90CF90BF90AF9087
:100EC0000895EF92FF920F931F93DC01ED91FC9137
:100ED00011971A960D911C911B9718962D913C9184
:100EE00019970288F389E02D7B0140E050E060E033
:100EF00070E019951F910F91FF90EF9008956F92F8
:100F00007F928F929F92AF92BF92CF92DF92EF9299
:100F1000FF920F931F93CF93DF936C015A01480107
:100F2000EB013B01620E731EC615D70574F4D601A2
:100F3000ED91FC910484F585E02D87019401A501D4
:100F4000BE01C60119952196EFCFDF91CF911F9178
:100F50000F91FF90EF90DF90CF90BF90AF909F9058
:100F60008F907F906F900895EF92FF920F931F9351
:100F7000DC01ED91FC91260F371F215031090284CD
:100F8000F385E02D78018A0119951F910F91FF904B
:100F9000EF900895EF92FF920F931F937801DC0179
:100FA000ED91FC91240F351F890101501109028434
:100FB000F385E02D9B0119951F910F91FF90EF9004
:100FC00008956F927F928F929F92AF92BF92CF922D
:100FD000DF92EF92FF920F931F93CF93DF93EC0179
:100FE0004B015A0169013801E881F9810684F785CE
:100FF000E02D87011995E881F981A501460D571D5E
:10100000415051090684F785E02D9601B401CE01C7
:101010001995E881F9810484F585E02D9301A501F6
:10102000B401CE011995E881F981C80CD91CB6012B
:10103000615071090484F585E02D9301A501CE016D
:101040001995DF91CF911F910F91FF90EF90DF9055
:10105000CF90BF90AF909F908F907F906F900895AA
:101060002F923F924F925F926F927F928F929F92B8
:10107000AF92BF92CF92DF92EF92FF920F931F93A6
:10108000CF93DF9300D0CDB7DEB74C017B836A836B
:101090006A01590117019801241B350B37FF03C062
:1010A000319521953109C5014A815B81841B950BDE
:1010B00097FF03C091958195910951E0598382175B
:1010C000930714F019820BC09A2D8B2D5801092F0C
:1010D000182F9A818B81DB82CA82C92ED82E8A81F1
:1010E0009B81A816B9065CF49C2D8D2D6801092FF3
:1010F000182F9A818B81BB82AA82A92EB82E250136
:10110000AA81BB814A1A5B0A38016C187D0877FEF8
:1011100003C0719461947108720157FE03C0BFEF60
:10112000EB1AFB0AF594E794C016D1061CF00FEFFA
:101130001FEF1FC001E010E01CC0D401ED91FC9135
:10114000B9810084F185E02D9101BB23C1F04A8172
:101150005B81B601C4011995E618F708F7FE04C0D3
:10116000C00ED11EE40CF51CEA81FB813196FB8395
:10117000EA834A815B81A416B506FCF604C0A60189
:101180006A817B81E7CF0F900F900F90DF91CF9115
:101190001F910F91FF90EF90DF90CF90BF90AF9095
:1011A0009F908F907F906F905F904F903F902F9087
:1011B00008950F931F93CF93DF93DC0155968C9185
:1011C0005597823071F0833009F1813009F08CC07D
:1011D0001496ED91FC911597E41BF50BE21BF30BB4
:1011E00020C01496ED91FC911597CF01861B970BAB
:1011F000BC01615071091696ED91FC911797CF01D2
:10120000841B950BAC01421B530B6EC01696ED91DF
:10121000FC911797CF01861B970BBC016150710998
:10122000FA0177FD1BC116968D919C91179768174F
:1012300079070CF013C1F7FF04C02E0F3F1FE0E049
:10124000F0E014968D919C911597AF01420F531FBA
:10125000841795071CF49C012E1B3F0B12161306D6
:101260000CF0FCC0CB0177FD079643E09595879580
:101270004A95E1F79695982F882797958795E80FD7
:10128000F91FE050FE4F6770772781E090E001C0C2
:10129000880F6A95EAF7482F0130110541F088F070
:1012A0000230110509F0DAC02E0F3F1F15C02E0FB6
:1012B0003F1FE217F30709F4D1C08081842B81938B
:1012C000F8CF80952E0F3F1FE217F30709F4C6C031
:1012D000908198239193F8CFE217F30709F4BEC0E9
:1012E000808184278193F8CF77FDB8C014968D91C3
:1012F0009C911597681779070CF0B0C057FF04C090
:10130000240F351F40E050E016968D919C91179761
:10131000FA01E20FF31F8E179F071CF49C01241B98
:10132000350B121613060CF099C0A22F842F869548
:101330008695869590E8899F600D711D1124FB01AB
:10134000E050FE4F4770A9F198E0941B492F50E000
:10135000EA01C85FD94F8881291790F4421B5109CF
:101360002FEF30E002C0359527954A95E2F78223AA
:101370000130110541F068F00230110589F06EC0AE
:101380000130110519F42081822B0CC001301105A8
:1013900020F480952081822305C00230110531F4AC
:1013A000208182278083A91708F458C0A91BE05820
:1013B000FF4FA83048F10230110559F4EF018A2F90
:1013C000988190959883C058DF4F88508830C0F737
:1013D00030C081E00130110509F080E08195EF0116
:1013E0009A2F8883C058DF4F98509830D0F788EFF5
:1013F0008A0F86958695869590E8899FE00DF11D68
:101400001124E058FF4FA770AA2341F1B0E0A0508B
:10141000BA4F8C910130110529F038F002301105D6
:10142000D1F01CC09081892B18C0809590818923B0
:1014300014C088EF8A0F86958695869590E8899FD7
:10144000E00DF11D1124E058FF4FA77039F0B0E016
:10145000A050BA4F8C91908189278083DF91CF91E2
:101460001F910F9108950F931F93CF93DF93DC018A
:10147000FB0155968C915597823081F0833019F19C
:10148000813051F514968D919C911597BC01641B88
:10149000750BAB0141505109BF0181C014966D918C
:1014A0007C911597CB018E1B9F0BFC0116968D919D
:1014B0009C911797BC01641B750BAB0141505109FE
:1014C000E21BF30B09C016966D917C9117976E1B6A
:1014D0007F0B621B730B63C057FD1CC116968D9169
:1014E0009C911797481759070CF014C1F7FF04C0D7
:1014F0002E0F3F1FE0E0F0E014968D919C91159720
:10150000BF01620F731F861797071CF49C012E1BE7
:101510003F0B121613060CF0FDC0CA0157FD0796CB
:1015200063E0959587956A95E1F79695982F8827BA
:1015300097958795E80FF91FE050FE4F47705527A4
:1015400081E090E001C0880F4A95EAF7482F01300A
:10155000110541F088F00230110509F0DBC02E0FB3
:101560003F1F15C02E0F3F1FE217F30709F4D2C02B
:101570008081842B8193F8CF80952E0F3F1FE21737
:10158000F30709F4C7C0908198239193F8CFE2172D
:10159000F30709F4BFC0808184278193F8CF57FDFA
:1015A000B9C014968D919C911597481759070CF066
:1015B000B1C077FF04C0260F371F60E070E01696B9
:1015C0008D919C911797FB01E20FF31F8E179F07D8
:1015D0001CF49C01261B370B121613060CF09AC044
:1015E000A22F862F86958695869590E8899F400D37
:1015F000511D1124FA01E050FE4F6770A9F198E0E7
:10160000961B492F50E0EA01C85FD94F88812917FE
:1016100090F4421B51092FEF30E002C03595279519
:101620004A95E2F782230130110541F068F002305B
:10163000110589F06FC00130110519F42081822B4A
:101640000CC00130110520F480952081822305C053
:101650000230110531F4208182278083A91708F414
:1016600059C0A91BE058FF4FA83048F102301105BE
:1016700059F4EF018A2F988190959883C058DF4FD5
:1016800088508830C0F731C081E00130110509F081
:1016900080E08195EF019A2F8883C058DF4F9850E2
:1016A0009830D0F788EF8A0F86958695869560E802
:1016B000869FE00DF11D1124E058FF4FA770AA236B
:1016C00049F1B0E0A050BA4F8C910130110529F0DA
:1016D00038F002301105D9F01DC09081892B03C06C
:1016E000809590818923808315C088EF8A0F869525
:1016F0008695869570E8879FE00DF11D1124E058CE
:10170000FF4FA77039F0B0E0A050BA4F8C91908194
:101710008927E9CFDF91CF911F910F910895FC01A7
:1017200077FD9AC080859185681779070CF094C081
:1017300057FD92C082859385481759070CF08CC0DD
:101740008589823009F07CC084819581DC01A61BEB
:10175000B70BBD016150710986819781FC01E41BC3
:10176000F50BAF01415051090AC0813041F4848129
:101770009581841B950BAB01BC016150710921302F
:10178000310529F008F122303105E1F10895FA011F
:1017900057FD3796A3E0F595E795AA95E1F7F695FD
:1017A000FE2FEE27F795E7956E0F7F1FFB01E050A8
:1017B000FE4F4770552781E090E001C0880F4A95A1
:1017C000EAF79081892B3AC0FA0157FD379623E05A
:1017D000F595E7952A95E1F7F695FE2FEE27F79513
:1017E000E7956E0F7F1FFB01E050FE4F47705527B6
:1017F00081E090E001C0880F4A95EAF780959081DA
:1018000089231CC0FA0157FD379683E0F595E795CB
:101810008A95E1F7F695FE2FEE27F795E7956E0F7F
:101820007F1FFB01E050FE4F4770552781E090E09D
:1018300001C0880F4A95EAF790818927808308952F
:10184000833009F092CF86819781861B970BBA016E
:10185000AC014150510993CF089585ED8093BC00B0
:101860008091BC0084FDFCCF1092770708954091D1
:10187000FC06262F30E0240F311D21323105DCF427
:10188000209177072430C9F4FC0180E090E08617AE
:1018900058F43091FC062191DC01A652B94FA30FF8
:1018A000B11D2C930196F3CF8091FC06680F6093D5
:1018B000FC0680E0089581E0089582E0089508958F
:1018C000E091790780917807E81730F4F0E0E65866
:1018D000F84F808190E008958FEF9FEF08959091E9
:1018E000790780917807981750F4E92FF0E0E658CF
:1018F000F84F208130E09F5F9093790702C02FEF6F
:101900003FEFC90108958091780790E02091790711
:10191000821B91090895CF92DF92EF92FF920F936D
:101920001F93CF93DF937C01262F972F8A018091FD
:101930002D07882391F0C62FD72F6E01C40ED51E18
:10194000CC15DD0569F06991D701ED91FC9101900D
:10195000F081E02DC7011995F3CF642F822F87DF27
:10196000C801DF91CF911F910F91FF90EF90DF9011
:10197000CF900895CF93DF931F92CDB7DEB76983E1
:1019800020912D072223D1F020915007203240F0E2
:1019900021E030E0FC013383228380E090E014C03A
:1019A00080912E07E82FF0E0E15DF84F9981908358
:1019B0008F5F80932E078093500704C061E0CE01B3
:1019C000019655DF81E090E00F90DF91CF9108956F
:1019D000089580E090E008956115710579F0FB01AC
:1019E00001900020E9F73197AF01461B570BDC014E
:1019F000ED91FC910280F381E02D199480E090E05C
:101A000008951F920F920FB60F9211240BB60F92EA
:101A10002F933F934F935F936F937F938F939F93F6
:101A2000AF93BF93EF93FF938AE997E00E9400047E
:101A3000FF91EF91BF91AF919F918F917F916F91A6
:101A40005F914F913F912F910F900BBE0F900FBE62
:101A50000F901F9018951F920F920FB60F9211249E
:101A60000BB60F922F938F939F93EF93FF93E09179
:101A7000AA07F091AB078081E091B007F091B10720
:101A800082FD12C090818091B3078F5F8F73209188
:101A9000B407821751F0E091B307F0E0E656F84F33
:101AA000958F8093B30701C08081FF91EF919F9143
:101AB0008F912F910F900BBE0F900FBE0F901F9024
:101AC0001895362F90E0FC01E85FF94F4491FC0136
:101AD000E853F94F2491FC01EE57F94F9491992363
:101AE00009F46BC0442309F455C050E0FA01319762
:101AF000E231F10508F04EC08827EE58FF4F8F4FB6
:101B00000C943319809180008F7707C080918000FA
:101B10008F7D03C080918000877F809380003AC0D2
:101B200084B58F7702C084B58F7D84BD33C080912A
:101B3000B0008F7703C08091B0008F7D8093B0009C
:101B400029C0809190008F7707C0809190008F7D91
:101B500003C080919000877F809390001BC080918C
:101B6000A0008F7707C08091A0008F7D03C0809177
:101B7000A000877F8093A0000DC0809120018F7707
:101B800007C0809120018F7D03C080912001877F55
:101B900080932001E92FF0E0EE0FFF1FE25BF94F89
:101BA000A591B4918FB7F894EC91311103C02095B1
:101BB0002E2301C02E2B2C938FBF08958F929F92BE
:101BC000AF92BF92CF92DF92EF92FF926B017C01B6
:101BD0000E94C0044B015C01C114D104E104F10472
:101BE000F1F00E94C004DC01CB0188199909AA090F
:101BF000BB09883E9340A105B10570F321E0C21AEC
:101C0000D108E108F10888EE880E83E0981EA11C37
:101C1000B11CC114D104E104F10419F7DDCFFF9028
:101C2000EF90DF90CF90BF90AF909F908F900895EE
:101C30001F920F920FB60F9211242F933F938F9301
:101C40009F93AF93BF938091220790912307A09118
:101C50002407B09125073091210723E0230F2D376A
:101C600020F40196A11DB11D05C026E8230F0296A0
:101C7000A11DB11D20932107809322079093230774
:101C8000A0932407B09325078091260790912707FA
:101C9000A0912807B09129070196A11DB11D80933D
:101CA000260790932707A0932807B0932907BF9191
:101CB000AF919F918F913F912F910F900FBE0F90F9
:101CC0001F9018951F920F920FB60F9211240BB60A
:101CD0000F922F933F934F935F936F937F938F93C5
:101CE0009F93AF93BF93EF93FF938091B900887F49
:101CF000803609F49CC068F5883209F45BC090F422
:101D0000803109F454C038F4882309F4F6C08830CF
:101D100009F44DC0F5C0883109F44CC0803209F493
:101D20005DC0EEC0803409F468C048F4803309F423
:101D300055C0883309F0E4C080937507D8C080355A
:101D400009F44FC0883509F45DC0883409F0D8C063
:101D5000D6C0883909F4C7C0A8F4883709F467C029
:101D600038F4883609F463C0803709F460C0C8C00D
:101D7000883809F4B8C0803909F45FC0803809F0A8
:101D8000BFC05BC0803B09F486C038F4803A09F4D8
:101D900066C0883A09F47FC0B3C0803C09F4A7C08C
:101DA000883C09F4A4C0883B09F48AC0A9C080918A
:101DB000720710C09091740780917307981770F59F
:101DC000E091740781E08E0F80937407F0E0EF5A82
:101DD000F84F80818093BB0085EC86C080937507A7
:101DE0008EC0E091740781E08E0F8093740780911C
:101DF000BB00F0E0EF5AF84F808390917407809118
:101E000073076EC0E091740781E08E0F80937407B2
:101E10008091BB00F0E0EF5AF84F80838091760705
:101E200081116DC081E08093710784EA61C083E015
:101E30008093770710922007CFCF809120078032C0
:101E400008F051C0E091200781E08E0F80932007B9
:101E50008091BB00F0E0E050F94F8083BDCF85EC6E
:101E60008093BC001092770780912007803230F475
:101E7000E0912007F0E0E050F94F108260912007D8
:101E800070E0E091FE06F091FF0680E097E0199582
:101E90001092200735C084E0809377071092FD06EA
:101EA0001092FC06E091FA06F091FB0619958091DC
:101EB000FC06811105C081E08093FC061092DA06D1
:101EC000E091FD0681E08E0F8093FD06F0E0E65282
:101ED000F94F80818093BB009091FD068091FC06B4
:101EE000981708F479CF85E88093BC0009C085EC89
:101EF0008093BC001092770703C010927507ADDC89
:101F0000FF91EF91BF91AF919F918F917F916F91D1
:101F10005F914F913F912F910F900BBE0F900FBE8D
:101F20000F901F9018951092770781E080937607A5
:101F30001092710761E084E1C4DD61E085E1C1DDFB
:101F4000E9EBF0E080818E7F808380818D7F8083CC
:101F500088E48093B80085E48093BC000895CF9214
:101F6000DF92EF92FF920F931F93CF93DF936C0159
:101F70007A018B01C0E0D0E0CE15DF0589F0D801F1
:101F80006D918D01D601ED91FC910190F081E02DD4
:101F9000C6011995892B11F47E0102C02196ECCF60
:101FA000C701DF91CF911F910F91FF90EF90DF90CC
:101FB000CF90089511CD0E943B194F925F926F927E
:101FC0007F92EF92FF920F931F93CF93DF93CDB742
:101FD000DEB7A1970FB6F894DEBF0FBECDBF7C0170
:101FE000FA01CB0119A2223008F42AE08E010F5D1C
:101FF0001F4F422E512C612C712CBF01A301920165
:102000000E941119F901CA01015011096A3014F432
:10201000605D01C0695CD8016C93232B242B252BB8
:1020200061F7B801C701D8DCA1960FB6F894DEBFFE
:102030000FBECDBFDF91CF911F910F91FF90EF9019
:102040007F906F905F904F90089560E576E0C4CCEC
:10205000DC01ED91FC910190F081E02D19944F92FB
:102060005F926F927F928F929F92AF92BF92CF9228
:10207000DF92EF92FF92CF93DF93EC016A017B0135
:10208000B22E9A01AB01C701B6010E940D19882337
:1020900019F063E576E026C026013701E89477F869
:1020A0002FEF3FEF4FE75FE7C301B2010E940D1929
:1020B00081110CC02FEF3FEF4FE75FE7C301B20183
:1020C000FBD618161CF467E576E00CC02FEF3FEF47
:1020D0004FE75FE4C701B6010E94A618181694F4F2
:1020E0006BE576E0CE01DF91CF91FF90EF90DF902E
:1020F000CF90BF90AF909F908F907F906F905F90A8
:102100004F906ACC2FEF3FEF4FE75FECC701B6016E
:10211000D3D687FDE5CF20E030E0A901C701B601A5
:10212000CBD687FF09C06DE2CE0192DF4C01F7FAF2
:10213000F094F7F8F09402C0812C912CA12C60E06F
:1021400070E080E09FE3AB1439F020E030E040E243
:1021500051E4B6D6A394F7CF9B01AC01C701B601F9
:1021600047D62B013C0114D76B017C013DD79B0165
:10217000AC01C301B2013BD62B013C012AE0B701FF
:10218000A601CE011ADF7C01E80CF91CBB2029F066
:102190006EE2CE015DDFE80EF91EDB2CDD2001F1E1
:1021A00020E030E040E251E4C301B201D3D72B017B
:1021B0003C01EED64B01A12CB12C2AE0B501A401C3
:1021C000CE01FBDEE80EF91EC501B4010DD79B015F
:1021D000AC01C301B2010BD62B013C01DA94DECF76
:1021E000C701DF91CF91FF90EF90DF90CF90BF902C
:1021F000AF909F908F907F906F905F904F900895D9
:10220000909177079111FCCF613208F060E291E084
:1022100090937707909376072FEF2093750710928E
:102220007407260F2093730790937207909172079B
:10223000880F892B8093720780917107813061F438
:1022400010927107809172078093BB008091BC004F
:1022500083FDF8CF85EC01C085EE8093BC008091B2
:1022600077078130E1F380917407861710F460914D
:102270007407A1E5B7E02AE737E0F9018E2F821B4A
:10228000861718F48D918193F9CF10927907609396
:102290007807862F08952091500790914F0721329B
:1022A00008F04AC0809177078111FCCF32E030936B
:1022B000770731E0309376073FEF30937507109240
:1022C000740720937307AFE2B7E041E557E0FA01E6
:1022D0003E2F341B321718F43D913193F9CF1092F1
:1022E000720720917207990F922B90937207909129
:1022F0007107913061F41092710790917207909379
:10230000BB009091BC0093FDF8CF95EC01C095EE19
:102310009093BC00909177079230E1F3909175070C
:102320009F3F79F080917507803241F08091750769
:10233000803331F084E005C081E003C082E001C059
:1023400083E010922E071092500710922D070895E7
:10235000682F87E398E00ECB90916C08992339F0B1
:102360008EBD00000DB407FEFDCF8EB5089528E0A8
:1023700030E040E8E0916F08F09170085081909152
:102380007608909595239083E0916D08F0916E0802
:1023900090917508542F582319F05081952B03C044
:1023A0005081909595239083E0916F08F09170088B
:1023B000508190917608952B908346952150310954
:1023C000C9F60895CF93C82F809167088F3F51F1C8
:1023D000E0917108F0917208808190917708982BB4
:1023E0009083E0917308F0917408208190917808AF
:1023F000909592239083E0917108F091720820816A
:10240000909177089095922390838C2FA5DFE0918F
:102410007108F0917208908180917708892B8083F0
:10242000CF9108958091650891E090932D07809356
:102430004F0710922E071092500760E087E398E054
:1024400099DA6C2F87E398E095DACF9124CF90E06A
:10245000FC01E853F94F2491FC01EE57F94F8491A8
:10246000882399F090E0880F991FFC01E859F94FF3
:10247000A591B491FC01E25BF94F859194918FB7DE
:10248000F894EC91E22BEC938FBF0895CF92DF92FA
:10249000EF92FF92CF93DF936C01990FEE08FF0844
:1024A000F7FE14C06DE28BE498E0D2DDEC01442726
:1024B0005527BA014C195D096E097F092AE08BE4A2
:1024C00098E07BDD7C01EC0EFD1E07C02AE0B70121
:1024D000A6018BE498E071DD7C018BE498E0B5DD2A
:1024E0008E0D9F1DDF91CF91FF90EF90DF90CF90E9
:1024F0000895CF93DF9300D01F92CDB7DEB77894C5
:1025000084B5826084BD84B5816084BD85B58260F8
:1025100085BD85B5816085BD80916E0081608093A9
:102520006E00109281008091810082608093810012
:102530008091810081608093810080918000816022
:10254000809380008091B10084608093B10080917D
:10255000B00081608093B000809191008260809390
:102560009100809191008160809391008091900012
:102570008160809390008091A10082608093A1008F
:102580008091A10081608093A1008091A000816072
:102590008093A0008091210182608093210180912D
:1025A00021018160809321018091200181608093CD
:1025B000200180917A00846080937A0080917A0073
:1025C000826080937A0080917A00816080937A00A3
:1025D00080917A00806880937A001092C100E09127
:1025E000AA07F091AB0792E09083E091A607F091E3
:1025F000A7071082E091A807F091A9078FEC8083CC
:102600001092B207E091AE07F091AF0786E08083A9
:10261000E091AC07F091AD07808180618083E0910B
:10262000AC07F091AD07808188608083E091AC07B2
:10263000F091AD07808180688083E091AC07F091D4
:10264000AD0780818F7D8083909366088CE38093B3
:102650006508809167088F3F09F4AEC080916908D2
:10266000F6DE80916B08F3DE80916B08082E000C7B
:10267000990BFC01EE57F94FE491F0E0EE0FFF1FCC
:10268000E25BF94F259134913093720820937108E1
:10269000FC01E853F94FE491E093770880916908D1
:1026A000082E000C990BFC01EE57F94FE491F0E075
:1026B000EE0FFF1FE25BF94F2591349130937408C0
:1026C00020937308FC01E853F94FE491E0937808F4
:1026D00080916C0881113AC080916708B8DE8091C2
:1026E0006808B5DE80916808082E000C990BFC0183
:1026F000EE57F94FE491F0E0EE0FFF1FE25BF94F68
:10270000259134913093700820936F08FC01E853B1
:10271000F94FE491E093760880916708082E000C49
:10272000990BFC01EE57F94FE491F0E0EE0FFF1F1B
:10273000E25BF94F2591349130936E0820936D0838
:10274000FC01E853F94FE491E093750880916C081F
:10275000882309F43AC01FB7F89480912A078111A1
:1027600020C0E7EBF6E08491EDEFF6E09491E82FDE
:10277000F0E0EE0FFF1FE859F94FA591B491EC91ED
:10278000E92319F461E085E39CD985E360DE8CB52B
:1027900080618CBD8CB580648CBD84E358DE83E39E
:1027A00056DE80912A078F5F80932A071FBF80E53E
:1027B0008CBD81E08DBD09C0109279071092780719
:1027C00010922E0710925007AEDB80916A0887FDA9
:1027D00017C03DDE61E080916A0873D961E070E066
:1027E00080E090E0EBD960E080916A086AD96AE005
:1027F00070E080E090E0E2D961E080916A0861D900
:102800008EEAE0DD85EDDEDD80E8DCDD88EADADD1C
:102810008FE3D8DD83EDD6DD80E0D4DD80E4D2DD4A
:102820008DE8D0DD84E1CEDD80E2CCDD80E0CADD64
:1028300081EAC8DD88ECC6DD8AEDC4DD82E1C2DD57
:1028400081E8C0DD8FECBEDD89EDBCDD81EFBADD56
:102850008BEDB8DD80E4B6DD84EAB4DD86EAB2DD76
:102860008EE2B0DD8FEAAEDD109279071092780724
:1028700010922E071092500756DB01E000932D07AF
:1028800010E410934F0710922E07109250078EEF0E
:1028900090E05EDD00DD6FE070E080E090E08ED9DA
:1028A00000932D0710934F0710922E071092500798
:1028B00087EE90E04DDDEFDC61E080E4A1DC87E3B2
:1028C00098E00DD8029749F06FE576E08AE997E045
:1028D00083D88AE997E0B9DBFFCF80E094E0E0E0BD
:1028E000F2E0DF019C011D9221503040E1F75524B8
:1028F000539490E4492E212C24E0322E50922D073F
:1029000040924F0710922E071092500783EE90E0EE
:102910001FDDC1DC62E370E080E090E04FD963E04E
:1029200080E46EDC833099F587E398E00E946F0CB9
:10293000D82EC12C87E398E00E946F0C8C7F9927DA
:102940008C010C291D2987E398E00E946F0CB801C7
:1029500080E090E049D322E538EB4FE253E4FAD32C
:1029600020E030E040E857E3F5D326E636E64BE3D7
:1029700052E43DD23B01AB01BC0140934708509368
:1029800048086093490870934A087C0104C0612C90
:10299000712CE12CF12C50922D0740924F07109290
:1029A0002E071092500785EE90E0D2DC74DC62E3D3
:1029B00070E080E090E002D963E080E421DC8330C5
:1029C000A9F587E398E00E946F0C8A83198287E358
:1029D00098E00E946F0C8C7F992709811A81082B3F
:1029E000192B87E398E00E946F0CB80180E090E01B
:1029F000FBD220E030E04AEF52E4ACD320E030E0FC
:102A000040E857E3A7D320E030E040EC50E4EFD1BA
:102A10008B01AB01BC014093430850934408609381
:102A20004508709346088C839B8304C000E010E047
:102A30001C821B8265E776E08AE997E0BBDA22E038
:102A4000A301B7018AE997E00ADB6BE776E08AE940
:102A500097E0B0DA6DE776E08AE997E0ABDA22E05A
:102A6000A8016C817B818AE997E0F9DA6BE776E06F
:102A70008AE997E09FDA67E876E08AE997E09ADAF0
:102A80006CE876E08AE997E095DA6BE776E08AE928
:102A900097E090DA60E976E08AE997E08BDA66E918
:102AA00076E08AE997E086DA6BE776E08AE997E0F4
:102AB00081DA6AE976E08AE997E07CDA60EA76E032
:102AC0008AE997E077DA6BE776E08AE997E072DAED
:102AD00063EA76E08AE997E06DDA68EA76E08AE907
:102AE00097E068DA6BE776E08AE997E063DA6BEA09
:102AF00076E08AE997E05EDA61EB76E08AE997E0D2
:102B000059DA6BE776E08AE997E054DA64EB76E02D
:102B10008AE997E04FDA40912B0750912C074A0140
:102B2000550FAA08BB08B7FE0DC06DE28AE997E011
:102B30008FDA44275527BA01481959096A097B09D0
:102B40002AE003C02AE0B501A4018AE997E035DA5A
:102B500062E576E08AE997E00E94EC0C8AE997E06A
:102B600074DA82E080935F0881E090E090935E08E1
:102B700080935D0890935C0880935B0810925808DE
:102B80001092570810925A08109259086AEB76E092
:102B90008BE498E00FDA86E090E078DC50925F08F2
:102BA0008BE498E052DA64EC76E08BE498E002DAA9
:102BB00022E0A301B7018BE498E051DA8BE498E0BE
:102BC00044DA8BE498E041DA6AEC76E08BE498E052
:102BD000F1D922E0A8016C817B818BE498E03FDA97
:102BE0008BE498E032DA8BE498E02FDA64ED76E05B
:102BF0008BE498E0DFD980912B0790912C0746DC7D
:102C000081E2E0DB80E0DEDB8FE7DCDB82E2DADB47
:102C100080E0D8DB87E0D6DB809167088F3F81F1C9
:102C2000E0917108F0917208908180917708892B6A
:102C30008083E0917308F091740890818091780806
:102C4000892B8083E0917108F091720890818091C6
:102C5000770880958923808300E012E0D8018D9168
:102C60008D017ADBB6E000301B07C1F7E0917108F7
:102C7000F0917208908180917708892B808330C011
:102C8000F090B800ECE0E093B80080E0A82E82E07D
:102C9000B82E8091650850922D0780934F071092AF
:102CA0002E071092500780E490E052DB00E010E025
:102CB000F501E00FF11F608187E398E00E94BA0CF4
:102CC0000F5F1F4F0031110599F7E5DAF0E1AF0E04
:102CD000B11C20E0A21626E0B206D9F6F092B800A8
:102CE000A0E0B2E0F1011D923197E9F764EF71E0E5
:102CF00080E090E00E94DE0D80912B0790912C07E0
:102D0000019690932C0780932B070E948804F6CDA0
:102D1000EAE9F7E01382128288EE93E0A0E0B0E0E7
:102D200084839583A683B78324E136E031832083AF
:102D300025EC30E03587248724EC30E03787268780
:102D400020EC30E0318B208B21EC30E0338B228B78
:102D500022EC30E0358B248B26EC30E0378B268B51
:102D6000118E128E138E148EE7E3F8E01382128216
:102D700084839583A683B78386E296E091838083DC
:102D8000EBE4F8E01382128220E830E035832483FC
:102D900080E490E0978386833187208793878287BA
:102DA000158A158614861786168681E0848B2FEF88
:102DB0003FEF338B228B318B208B868B178A118EC2
:102DC000108E88E396E0918380838FEF848F80A3B9
:102DD000868F858F84E0878FE3E4F8E0108211828C
:102DE0001282138214821582168217820895505817
:102DF000BB27AA270ED070C161D130F066D120F078
:102E000031F49F3F11F41EF456C10EF4E095E7FB38
:102E10004CC1E92F72D180F3BA1762077307840798
:102E2000950718F071F49EF58AC10EF4E0950B2E0B
:102E3000BA2FA02D0B01B90190010C01CA01A0010C
:102E40001124FF27591B99F0593F50F4503E68F167
:102E50001A16F040A22F232F342F4427585FF3CFA8
:102E6000469537952795A795F0405395C9F77EF479
:102E70001F16BA0B620B730B840BBAF09150A1F0C2
:102E8000FF0FBB1F661F771F881FC2F70EC0BA0F48
:102E9000621F731F841F48F4879577956795B795D0
:102EA000F7959E3F08F0B3CF9395880F08F09927C8
:102EB000EE0F979587950895D4D008F481E0089592
:102EC0000CD00AC102D140F0F9D030F021F45F3FBC
:102ED00019F0EBC0511134C1EEC00FD198F3992312
:102EE000C9F35523B1F3951B550BBB27AA276217CE
:102EF0007307840738F09F5F5F4F220F331F441F13
:102F0000AA1FA9F333D00E2E3AF0E0E830D091504A
:102F10005040E695001CCAF729D0FE2F27D0660F37
:102F2000771F881FBB1F261737074807AB07B0E876
:102F300009F0BB0B802DBF01FF2793585F4F2AF08C
:102F40009E3F510568F0B1C0FBC05F3FECF3983E77
:102F5000DCF3869577956795B795F7959F5FC9F7E9
:102F6000880F911D9695879597F90895E1E0660F72
:102F7000771F881FBB1F621773078407BA0720F0EB
:102F8000621B730B840BBA0BEE1F88F7E095089554
:102F9000BCD088F09F5790F0B92F9927B751A0F077
:102FA000D1F0660F771F881F991F1AF0BA95C9F7DD
:102FB00012C0B13081F0C3D0B1E00895C0C0672F16
:102FC000782F8827B85F39F0B93FCCF3869577958D
:102FD0006795B395D9F73EF4909580957095619576
:102FE0007F4F8F4F9F4F0895E89409C097FB3EF4A1
:102FF00090958095709561957F4F8F4F9F4F992346
:10300000A9F0F92F96E9BB279395F69587957795C3
:103010006795B795F111F8CFFAF4BB0F11F460FF83
:103020001BC06F5F7F4F8F4F9F4F16C0882311F0DB
:1030300096E911C0772321F09EE8872F762F05C0EF
:10304000662371F096E8862F70E060E02AF09A958A
:10305000660F771F881FDAF7880F9695879597F97F
:103060000895990F0008550FAA0BE0E8FEEF161619
:103070001706E807F907C0F012161306E407F5076C
:1030800098F0621B730B840B950B39F40A2661F0E0
:10309000232B242B252B21F408950A2609F4A14083
:1030A000A6958FEF811D811D089597F99F6780E890
:1030B00070E060E008959FEF80EC089500240A948A
:1030C0001616170618060906089500240A94121603
:1030D0001306140605060895092E0394000C11F436
:1030E000882352F0BB0F40F4BF2B11F460FF04C0E3
:1030F0006F5F7F4F8F4F9F4F089557FD9058440F3C
:10310000551F59F05F3F71F04795880F97FB991F46
:1031100061F09F3F79F08795089512161306140603
:10312000551FF2CF4695F1DF08C016161706180690
:10313000991FF1CF86957105610508940895E8946B
:10314000BB2766277727CB0197F908958ADF08F414
:103150008FEF08950BD0C0CFB1DF28F0B6DF18F0A5
:10316000952309F0A2CFA7CF1124EACFC6DFA0F3A1
:10317000959FD1F3950F50E0551F629FF001729F0C
:10318000BB27F00DB11D639FAA27F00DB11DAA1F2B
:10319000649F6627B00DA11D661F829F2227B00D78
:1031A000A11D621F739FB00DA11D621F839FA00D03
:1031B000611D221F749F3327A00D611D231F849F53
:1031C000600D211D822F762F6A2F11249F575040AA
:1031D0008AF0E1F088234AF0EE0FFF1FBB1F661F45
:1031E000771F881F91505040A9F79E3F510570F0FE
:1031F0005CCFA6CF5F3FECF3983EDCF386957795E6
:103200006795B795F795E7959F5FC1F7FE2B880FF8
:10321000911D9695879597F9089523DF880B990B53
:103220000895A1E21A2EAA1BBB1BFD010DC0AA1F07
:10323000BB1FEE1FFF1FA217B307E407F50720F01F
:10324000A21BB30BE40BF50B661F771F881F991F9A
:103250001A9469F760957095809590959B01AC01E3
:10326000BD01CF010895EE0FFF1F881F8BBF079090
:10327000F691E02D199481E090E0F89400C0F89464
:02328000FFCF7E
:10328200000000000000000000000000000000003C
:10329200000000000000000000000000000000002C
:1032A200000000000000000000000000000000001C
:1032B200000000000000000000000000000000808C
:1032C20080800000000000000000000000000000FC
:1032D200008080C0C000000000000000000000006C
:1032E20000000000000000000000000000000000DC
:1032F20000000000000000000000000000000000CC
:1033020000000000000000000000000000000000BB
:103312000000000080C0E0F0F8FCF8E000000000CF
:10332200000000000000000000000000008080801B
:10333200808000808000000000808080808000FF0C
:10334200FFFF00000000808080800000808000007D
:1033520080FFFF80800080800080808080008080ED
:103362000000000000808000008C8E84000080F845
:10337200F8F88000000000000000000000000000DB
:10338200F0F0F0F0F0F0F0F0F0F0F0F0E0E0C080FB
:1033920000E0FCFEFFFFFF7FFFFFFFFFFF000000DA
:1033A2000000000000000000000000FEFFC7010155
:1033B200010183FFFF00007CFEC70101010183FFC1
:1033C200FFFF0038FEC78301010183C7FFFF000032
:1033D20001FFFF010100FFFF0701010100007FFF64
:1033E20080000000FFFF7F0000FFFFFF000001FFE1
:1033F200FFFF0100000000000000000000000000CC
:10340200030F3F7F7FFFFFFFFFFFFFFFE7C7C78F6E
:103412008F9FBFFFFFC3C0F0FFFFFFFFFFFCFCFC5D
:10342200FCFCFCFCFCF8F8F0F0E0C0000103030334
:10343200030301030300000000010303030301016E
:103442000301000000010303030301010303000061
:10345200000303000000030300000000000000015D
:103462000303030303010000000103010000000342
:103472000301000000000000000000000000000046
:1034820000000080C0E0F0F9FFFFFFFFFF3F1F0FC9
:1034920087C7F7FFFF1F1F3DFCF8F8F8F87C7DFF98
:1034A200FFFFFFFFFFFFFF7F3F0F070030300000ED
:1034B200000000000000000000000000000000000A
:1034C20000000000FEFEFC00000000000000000002
:1034D20000000000000000000000000000E0C0004A
:1034E200000000000000000000003030000000007A
:1034F20000000000000000000000000000000000CA
:1035020000C0FEFFFFFFFFFFFFFFFFFF7F7F3F1FA8
:103512000F071F7FFFFFF8F8FFFFFFFFFFFEF8E036
:10352200000000010000000000000000FEFE00009C
:1035320000FCFEFC0C06060EFCF80000F0F81C0E67
:103542000606060CFFFFFF0000FEFE00000000FC66
:10355200FEFC00183C7E66E6CE84000006FFFF06F5
:1035620006FCFEFC0C0606060000FEFE0000C0F88B
:10357200FC4E4646464E7C7840183C76E6CECC80E1
:103582000000000000000000000000000000000039
:103592000000000001070F1F1F3F3F3F3F1F0F03A7
:1035A2000000000000000000000000000F0F0000FB
:1035B200000F0F0F000000000F0F000003070E0C9A
:1035C20018180C060F0F0F0000010F0E0C180C0F2D
:1035D200070100040E0C180C0F070000000F0F006B
:1035E200000F0F0F0000000000000F0F0000000787
:1035F200070C0C181C0C060600040E0C180C0F0706
:1036020000000000000000000000000000000000B8
:1036120000000000000000000000000000000000A8
:103622000000000000000000000000000000000098
:103632000000000000000000000000000000000088
:103642000000000000000000000000000000000078
:103652000000000000000000000000000000000068
:103662000000000000000000000000000000000058
:103672000000000000000000000000000000000048
:10368200000103070F1F3F7F0080C0E0F0F8FCFE3F
:10369200000000002104AF0FBA036704EB03C90363
:1036A200DD0300000000BA0C8B0CE90C5F0C830CEC
:1036B2006F0C600C000000008C06AF0FE90CE80CE8
:1036C2008F0B3008D908330AE1077F076107E50449
:1036D2000D0A006E616E00696E66006F76660043C9
:1036E2006F756C646E27742066696E642073656EF4
:1036F200736F72210054656D703D002C0048756D2A
:1037020069646974793D00434F323D0036353600B5
:1037120054564F433D0038313300504D32353D0051
:10372200333100504D313D00313000504D31303D8C
:10373200003430006C6F6F703D0076657273696F94
:103742006E3A200054656D703A0048756D6964697F
:0A37520074793A004C4F4F503A00D2
:020000023000CC
:10E000000D9489F10D94B2F10D94B2F10D94B2F129
:10E010000D94B2F10D94B2F10D94B2F10D94B2F1F0
:10E020000D94B2F10D94B2F10D94B2F10D94B2F1E0
:10E030000D94B2F10D94B2F10D94B2F10D94B2F1D0
:10E040000D94B2F10D94B2F10D94B2F10D94B2F1C0
:10E050000D94B2F10D94B2F10D94B2F10D94B2F1B0
:10E060000D94B2F10D94B2F10D94B2F10D94B2F1A0
:10E070000D94B2F10D94B2F10D94B2F10D94B2F190
:10E080000D94B2F10D94B2F10D94B2F10D94B2F180
:10E090000D94B2F10D94B2F10D94B2F10D94B2F170
:10E0A0000D94B2F10D94B2F10D94B2F10D94B2F160
:10E0B0000D94B2F10D94B2F10D94B2F10D94B2F150
:10E0C0000D94B2F10D94B2F10D94B2F10D94B2F140
:10E0D0000D94B2F10D94B2F10D94B2F10D94B2F130
:10E0E0000D94B2F141546D656761323536300041AF
:10E0F000726475696E6F206578706C6F72657220DE
:10E1000073746B3530305632206279204D4C530099
:10E11000426F6F746C6F616465723E004875683F52
:10E1200000436F6D70696C6564206F6E203D200048
:10E130004350552054797065202020203D20005FF9
:10E140005F4156525F415243485F5F3D2000415658
:10E1500052204C696243205665723D20004743437C
:10E160002056657273696F6E203D20004350552024
:10E1700049442020202020203D20004C6F7720663D
:10E18000757365202020203D20004869676820665F
:10E190007573652020203D200045787420667573D6
:10E1A00065202020203D20004C6F636B2066757336
:10E1B000652020203D20004D617220203720323024
:10E1C000313300312E362E3800342E332E350056A2
:10E1D00023202020414444522020206F7020636F70
:10E1E00064652020202020696E73747275637469E1
:10E1F0006F6E2061646472202020496E74657272B3
:10E20000757074006E6F20766563746F7200726A49
:10E210006D702020006A6D70200057686174207056
:10E220006F72743A00506F7274206E6F7420737541
:10E2300070706F72746564004D7573742062652030
:10E2400061206C6574746572002000577269747483
:10E25000696E672045450052656164696E672045B7
:10E26000450045452065727220636E743D00504F35
:10E27000525400303D5A65726F2061646472003FF1
:10E280003D43505520737461747300403D454550C3
:10E29000524F4D207465737400423D426C696E6B41
:10E2A000204C454400453D44756D70204545505215
:10E2B0004F4D00463D44756D7020464C415348001B
:10E2C000483D48656C70004C3D4C69737420492F83
:10E2D0004F20506F72747300513D51756974005234
:10E2E0003D44756D702052414D00563D73686F7707
:10E2F00020696E7465727275707420566563746FF0
:10E30000727300593D506F727420626C696E6B00BD
:10E310002A0011241FBECFEFD1E2DEBFCDBF01E046
:10E320000CBF12E0A0E0B2E0EEE1FDEF03E00BBFB6
:10E3300002C007900D92A030B107D9F712E0A0E01B
:10E34000B2E001C01D92AE30B107E1F70F9460F367
:10E350000D948DFE01E20EBF0FEF0DBF11241FBE05
:10E360000D9460F30D9400F020E030E040ED57E0B4
:10E3700005C0FA013197F1F72F5F3F4F2817390792
:10E38000C0F308959C01260F311DC901A0E0B0E043
:10E390002F5F3F4FABBFFC018791882361F08093D3
:10E3A000C6008091C00086FFFCCF8091C0008064D1
:10E3B0008093C000EACF08958DE08093C6008091DD
:10E3C000C00086FFFCCF8091C00080648093C000B5
:10E3D0008AE08093C6008091C00086FFFCCF8091C8
:10E3E000C00080648093C00008950F94C2F10F9420
:10E3F000DCF10895FC019081992359F09093C600B7
:10E400008091C00086FFFCCF8091C0008064809323
:10E41000C0003196992379F70895282F982F929567
:10E420009F70892F805D8A3308F0895F8093C600D2
:10E430008091C00086FFFCCF8091C00080648093F3
:10E44000C000822F8F70982F905D9A3308F0995FEB
:10E450009093C6008091C00086FFFCCF8091C000E1
:10E4600080648093C00008959C01FB01853691056E
:10E470001CF46330710594F0C90164E670E00F94F8
:10E480002EFE605D7F4F6093C6008091C00086FFC6
:10E49000FCCF8091C00080648093C0002B30310598
:10E4A00014F43297B4F0C90164E670E00F942EFEC4
:10E4B0006AE070E00F942EFE605D7F4F6093C600AF
:10E4C0008091C00086FFFCCF8091C0008064809363
:10E4D000C000C9016AE070E00F942EFEC0968093E0
:10E4E000C6008091C00086FFFCCF8091C000806490
:10E4F0008093C00008951F93182F8EE692EE60E07F
:10E500000F94C2F11093C6008091C00086FFFCCF2B
:10E510008091C00080648093C0000F94DCF11F9153
:10E5200008952F923F924F925F926F927F928F92B7
:10E530009F92AF92BF92CF92DF92EF92FF920F9392
:10E540001F93DF93CF93CDB7DEB762970FB6F894E2
:10E55000DEBF0FBECDBF382E622ECA01DB015C01CB
:10E560006D01772420E2222E2E010894411C511CBB
:10E570008BC081E0A81680E0B80681E0C80680E084
:10E58000D80628F0C601AA27BB270F940DF2BB2797
:10E59000AD2D9C2D8B2D0F940DF28A2D0F940DF225
:10E5A0002092C6008091C00086FFFCCF8091C00001
:10E5B00080648093C0009DE29093C6008091C0006B
:10E5C00086FFFCCF8091C00080648093C0002092C1
:10E5D000C6008091C00086FFFCCF8091C00080649F
:10E5E0008093C00019828601750188249924A1E0D6
:10E5F0003A1651F03A1620F0B2E03B1661F409C029
:10E600000BBFF701779007C0C7010F9477FE782EF4
:10E6100002C0F7017080872D0F940DF22092C60082
:10E620008091C00086FFFCCF8091C0008064809301
:10E63000C000872D8052F401EF70F0708F3520F408
:10E64000E40DF51D708204C0E40DF51D8EE280839B
:10E650000894E11CF11C011D111D0894811C911CE2
:10E6600090E18916910409F0C2CF80E190E0A0E02A
:10E67000B0E0A80EB91ECA1EDB1E198AC2010F9493
:10E68000FAF10F94DCF16A94662009F072CF629679
:10E690000FB6F894DEBF0FBECDBFCF91DF911F91B3
:10E6A0000F91FF90EF90DF90CF90BF90AF909F9031
:10E6B0008F907F906F905F904F903F902F90089534
:10E6C0002F923F924F925F926F927F928F929F9282
:10E6D000AF92BF92CF92DF92EF92FF920F931F9370
:10E6E000DF93CF93CDB7DEB7CD53D1400FB6F894BB
:10E6F000DEBF0FBECDBF01E20EBF0FEF0DBF94B75F
:10E70000F894A89514BE80916000886180936000A1
:10E7100010926000789493FF05C0E0910002F091A0
:10E7200001021995279A2F9A8091C00082608093E8
:10E73000C00080E18093C40088E18093C1000000A4
:10E74000EE24FF24870144E0A42EB12CCC24DD2448
:10E7500024C0C5010197F1F70894E11CF11C011DCB
:10E76000111D21E2E2162EE4F20620E0020720E06D
:10E77000120718F031E0C32ED12CC801B70127ECE5
:10E780003BE140E050E00F9441FE611571058105C9
:10E79000910519F485B1805885B98091C00087FD35
:10E7A00003C0C114D104A9F2A6014F5F5F4FC25E3E
:10E7B000DE4F59834883CE51D140C25EDE4F8881FF
:10E7C0009981CE51D140019711F00D9410FEC05D9A
:10E7D000DE4F19821882C053D14060E0C15DDE4F28
:10E7E0001882CF52D14088249924C35DDE4F19820C
:10E7F0001882CD52D140C05EDE4F188219821A8233
:10E800001B82C052D140CE5CDE4F188219821A8220
:10E810001B82C253D140EE24FF2487010BBFF701B6
:10E8200007911691C45CDE4F19830883CC53D14005
:10E830000D940BFEC25EDE4F28813981CE51D1404E
:10E840002130310509F52091C600C25EDE4F1982E4
:10E850001882CE51D14022C02F5F3F4F4F4F5F4FA4
:10E86000213082E138078AE7480780E0580780F0C6
:10E87000C45CDE4FE881F981CC53D140EF5FFF4F9C
:10E8800019F0EE27FF27099420E030E040E050E047
:10E890008091C00087FFE0CF2091C600C35DDE4FAE
:10E8A00048815981CD52D1404F5F5F4FC35DDE4FEC
:10E8B00059834883CD52D140213209F063C64A3092
:10E8C000510508F05FC60894811C911C53E0851621
:10E8D000910409F059C600E010E018C081E280936D
:10E8E000C6008091C00086FFFCCF8091C00080648C
:10E8F0008093C0002F5F3F4F2931310579F70F9486
:10E90000DCF10F5F1F4F0530110519F020E030E0FA
:10E91000E5CF10920A0210920B0210920C02109294
:10E920000D02109206021092070210920802109235
:10E930000902109202021092030210920402109235
:10E9400005028FEE90EE60E00F94F5F180E191EE1C
:10E9500060E00F94C2F18091C00087FFFCCF9091DE
:10E96000C600903608F09F759032B8F09093C600BC
:10E970008091C00086FFFCCF8091C00080648093AE
:10E98000C000A0E2A093C6008091C00086FFFCCF2B
:10E990008091C00080648093C000983409F4D7C18E
:10E9A0009934B8F4923409F459C1933458F490333B
:10E9B00019F1903308F4E3C59F33A1F1903409F0C5
:10E9C000DEC5BDC0953409F470C1963409F0D7C5D1
:10E9D00098C1923509F42BC2933538F49C3409F46C
:10E9E000F5C1913509F0CBC518C2963509F445C279
:10E9F000993509F0C4C567C483E792EE62E00F94CD
:10EA0000F5F110920602109207021092080210927D
:10EA1000090210920A0210920B0210920C0210923C
:10EA20000D0213C18FE792EE62E00F94F5F18FEEC5
:10EA300090EE60E00F94F5F181E291EE60E00F94CA
:10EA4000C2F187EB91EE60E00F94F5F180E391EE77
:10EA500060E00F94C2F184EE90EE60E00F94F5F167
:10EA60008FE391EE60E00F94C2F186E090E061E008
:10EA700070E00F9434F20F94DCF18DE591EE60E0DC
:10EA80000F94C2F189EC91EE60E00F94F5F18EE401
:10EA900091EE60E00F94C2F183EC91EE60E00F9490
:10EAA000F5F18CE691EE60E00F94C2F18EE10F94E7
:10EAB0000DF288E90F940DF281E00F940DF20F949E
:10EAC000DCF18BE791EE60E00F94C2F119E0E0E039
:10EAD000F0E010935700E4918E2F0F940DF20F94F5
:10EAE000DCF18AE891EE60E00F94C2F1E3E0F0E03F
:10EAF00010935700E4918E2F0F940DF20F94DCF1D8
:10EB000089E991EE60E00F94C2F1E2E0F0E0109349
:10EB10005700E4918E2F0F940DF20F94DCF188EAE8
:10EB200091EE60E00F94C2F1E1E0F0E01093570045
:10EB30001491812F0F940DF20F94DCF107CF8BE825
:10EB400092EE62E00F94F5F18BE492EE60E00F94A8
:10EB5000F5F10F94DCF100E010E019C0C8016F2D51
:10EB60000F947FFEFF2031F489E492EE60E00F9471
:10EB7000C2F10BC0F092C6008091C00086FFFCCFAE
:10EB80008091C00080648093C0000F5F1F4FC80158
:10EB900081519F41A0E0B0E0ABBFFC01F790BAE229
:10EBA000FB1621F0E2E000301E07C1F60F94DCF105
:10EBB0000F94DCF187E592EE60E00F94F5F10F948D
:10EBC000DCF1CC24DD2400E010E01EC0C8010F946D
:10EBD00077FEF82E882331F489E492EE60E00F94FA
:10EBE000C2F10BC08093C6008091C00086FFFCCFAD
:10EBF0008091C00080648093C000FE1419F00894D6
:10EC0000C11CD11C0F5F1F4FC80181519F41A0E063
:10EC1000B0E0ABBFFC01E790FAE2EF1621F022E092
:10EC20000030120799F60F94DCF10F94DCF182E6C4
:10EC300092EE60E00F94C2F1C60161E070E00F94C3
:10EC400034F20F94DCF10F94DCF110920202109276
:10EC50000302109204021092050278CE89E992EE26
:10EC600062E00F94F5F1279A2F9A16C02F9880E052
:10EC700090E0E0EDF7E03197F1F7019684369105E9
:10EC8000C1F72F9A80E090E0E0EDF7E03197F1F7DF
:10EC9000019684369105C1F78091C00087FFE6CFC9
:10ECA0008091C00087FFFCCF64C485EA92EE62E0E9
:10ECB0000F94F5F140910202509103026091040219
:10ECC0007091050281E020E10F9491F2809102029F
:10ECD00090910302A0910402B091050280509F4FD1
:10ECE000AF4FBF4F8093020290930302A0930402A0
:10ECF000B093050280509041A040B04008F426CE69
:10ED0000A4CF83EB92EE62E00F94F5F140910602FE
:10ED100050910702609108027091090280E020E1A1
:10ED20000F9491F28091060290910702A09108023F
:10ED3000B091090280509F4FAF4FBF4F80930602A2
:10ED400090930702A0930802B0930902FFCD80ECD4
:10ED500092EE62E00F94F5F183E792EE60E00F949B
:10ED6000F5F18FE792EE60E00F94F5F18BE892EE0B
:10ED700060E00F94F5F189E992EE60E00F94F5F10F
:10ED800085EA92EE60E00F94F5F183EB92EE60E09D
:10ED90000F94F5F180EC92EE60E00F94F5F187ECC2
:10EDA00092EE60E00F94F5F188ED92EE60E00F9442
:10EDB000F5F18FED92EE60E00F94F5F18AEE92EEB0
:10EDC00060E00F94F5F183E093EEBDCD87EC92EE19
:10EDD00062E00F94F5F181E40F947BF282E40F94EA
:10EDE0007BF283E40F947BF284E40F947BF285E45E
:10EDF0000F947BF286E40F947BF287E40F947BF20E
:10EE000088E40F947BF28AE40F947BF28BE40F94F6
:10EE10007BF28CE40F947BF299CD88ED92EE62E068
:10EE20000F94F5F1772473948824992409C48FED05
:10EE300092EE62E00F94F5F140910A0250910B02BC
:10EE400060910C0270910D0282E020E10F9491F22A
:10EE500080910A0290910B02A0910C02B0910D02D8
:10EE600080509F4FAF4FBF4F80930A0290930B0289
:10EE7000A0930C02B0930D0269CD8AEE92EE62E08F
:10EE80000F94F5F184EE90EE60E00F94F5F18FECC5
:10EE900091EE60E00F94F5F1662477244301CC5D98
:10EEA000DE4F19821882C452D140D401C301B695F5
:10EEB000A79597958795CA5DDE4F88839983AA8326
:10EEC000BB83C652D140CC5DDE4FA881B981C4520C
:10EED000D1401196CC5DDE4FB983A883C452D14096
:10EEE000CD0162E070E00F9434F2B0E2B093C6005E
:10EEF0008091C00086FFFCCF8091C0008064809329
:10EF0000C000EDE2E093C6008091C00086FFFCCF18
:10EF10008091C00080648093C000F0E2F093C6004E
:10EF20008091C00086FFFCCF8091C00080648093F8
:10EF3000C000CA5DDE4FE880F9800A811B81C6529D
:10EF4000D140BB27A12F902F8F2D0F940DF2CA5DBA
:10EF5000DE4F8881C652D1400F940DF2B0E2FB2EF5
:10EF6000F092C6008091C00086FFFCCF8091C00067
:10EF700080648093C0000DE30093C6008091C000C0
:10EF800086FFFCCF8091C00080648093C00010E2B7
:10EF90001093C6008091C00086FFFCCF8091C00016
:10EFA00080648093C0008BBEF3012791C65DDE4F65
:10EFB0002883CA52D140A22EBB24CC24DD2408943D
:10EFC000611C711C811C911C8BBEF3018791282E42
:10EFD0003324442455240894611C711C811C911C09
:10EFE0008BBEF3013791C55DDE4F3883CB52D140E4
:10EFF0000894611C711C811C911C8BBEF30147910C
:10F00000C45DDE4F4883CC52D140ADEFEA2EAFEF66
:10F01000FA2EAFEF0A2FAFEF1A2F6E0C7F1C801E57
:10F02000911E142D032DF22CEE24EA0CFB1C0C1D5A
:10F030001D1D0F940DF220E22093C6008091C000A8
:10F0400086FFFCCF8091C00080648093C000C65DC5
:10F05000DE4F8881CA52D1400F940DF230E23093D6
:10F06000C6008091C00086FFFCCF8091C000806404
:10F070008093C000C45DDE4F8881CC52D1400F9494
:10F080000DF240E24093C6008091C00086FFFCCFA5
:10F090008091C00080648093C000C55DDE4F888190
:10F0A000CB52D1400F940DF250E25093C6008091A4
:10F0B000C00086FFFCCF8091C00080648093C000B8
:10F0C0008FEFE8168FEFF80680E0080780E018075A
:10F0D00031F484E092EE60E00F94C2F1DFC0D80119
:10F0E000C7018070907CA070B0708050904CA040A0
:10F0F000B040D1F52FEF3FE340E050E0E222F322B1
:10F1000004231523CA5DDE4FA880B980CA80DB8046
:10F11000C652D140AE0CBF1CC01ED11EAA0CBB1CD7
:10F12000CC1CDD1C8EE092EE60E00F94C2F1BB2798
:10F13000A12F902F8F2D0F940DF28E2D0F940DF285
:10F1400030E23093C6008091C00086FFFCCF8091F2
:10F15000C00080648093C0004EE34093C60080915D
:10F16000C00086FFFCCF87C08EE09EEFA0E0B0E03D
:10F17000E822F9220A231B239CE0E91694E9F90608
:10F1800090E0090790E0190709F088C0C45DDE4FE0
:10F19000A881CC52D140EA2EFF2400E010E0102FCD
:10F1A0000F2DFE2CEE24C55DDE4FB881CB52D14031
:10F1B000EB0EF11C011D111DD601C501817090706F
:10F1C000A070B070DC0199278827E80EF91E0A1F8D
:10F1D0001B1F20EF30E040E050E0A222B322C42207
:10F1E000D52241E1AA0CBB1CCC1CDD1C4A95D1F7F1
:10F1F000EA0CFB1C0C1D1D1D81E090E0A0E0B0E0BE
:10F20000282239224A225B2235E1220C331C441C7D
:10F21000551C3A95D1F7E20CF31C041D151D57013E
:10F220006801AA0CBB1CCC1CDD1C85E192EE60E0E1
:10F230000F94C2F1C801AA27BB270F940DF2BB2778
:10F24000A12F902F8F2D0F940DF28E2D0F940DF274
:10F2500090E29093C6008091C00086FFFCCF809121
:10F26000C00080648093C000AEE3A093C60080918C
:10F27000C00086FFFCCF8091C00080648093C000F6
:10F28000C601AA27BB270F940DF2BB27AD2D9C2DDD
:10F290008B2D0F940DF28A2D0F940DF20F94DCF14B
:10F2A000CC5DDE4FE881F981C452D140F99709F471
:10F2B0004DCBF4E0EF2EF12C012D112D6E0C7F1CA7
:10F2C000801E911EF2CD83E093EE62E00F94F5F183
:10F2D0008AE192EE60E00F94C2F18091C00087FF56
:10F2E000FCCF1091C6001F751093C6008091C0001E
:10F2F00086FFFCCF8091C00080648093C0000F9493
:10F30000DCF1812F81548A3108F036C1163409F4BA
:10F3100095C0173490F4133409F44EC0143430F40B
:10F320001134F1F0123409F01DC130C0143409F465
:10F3300059C0153409F016C16BC01A3409F4C4C0A1
:10F340001B3438F4173409F48FC0183409F00AC19B
:10F35000A1C01B3409F4D2C01C3409F003C1E8C0B9
:10F360008FEF81B90DC082B1809582B980E090E0C5
:10F37000E0EDF7E03197F1F70196883C9105C1F790
:10F380008091C00087FFEFCF12B8EFC08FEF84B934
:10F390000DC085B1809585B980E090E0E0EDF7E0A3
:10F3A0003197F1F70196883C9105C1F78091C00033
:10F3B00087FFEFCF15B8D9C08FEF87B90DC088B1DF
:10F3C000809588B980E090E0E0EDF7E03197F1F7C3
:10F3D0000196883C9105C1F78091C00087FFEFCF6F
:10F3E00018B8C3C08FEF8AB90DC08BB180958BB9A7
:10F3F00080E090E0E0EDF7E03197F1F70196883C8E
:10F400009105C1F78091C00087FFEFCF1BB8ADC059
:10F410008FEF8DB90DC08EB180958EB980E090E0F0
:10F42000E0EDF7E03197F1F70196883C9105C1F7DF
:10F430008091C00087FFEFCF1EB897C08FEF80BBD1
:10F440000DC081B3809581BB80E090E0E0EDF7E0F6
:10F450003197F1F70196883C9105C1F78091C00082
:10F4600087FFEFCF11BA81C08FEF83BB0DC084B38C
:10F47000809584BB80E090E0E0EDF7E03197F1F714
:10F480000196883C9105C1F78091C00087FFEFCFBE
:10F4900014BA6BC08FEF809301010FC080910201FD
:10F4A00080958093020180E090E0E0EDF7E03197F5
:10F4B000F1F70196883C9105C1F78091C00087FF64
:10F4C000EDCF1092020151C08FEF809304010FC065
:10F4D0008091050180958093050180E090E0E0ED4A
:10F4E000F7E03197F1F70196883C9105C1F78091DB
:10F4F000C00087FFEDCF1092050137C08FEF8093DA
:10F5000007010FC08091080180958093080180E079
:10F5100090E0E0EDF7E03197F1F70196883C910536
:10F52000C1F78091C00087FFEDCF109208011DC088
:10F530008FEF80930A010FC080910B01809580931B
:10F540000B0180E090E0E0EDF7E03197F1F70196F4
:10F55000883C9105C1F78091C00087FFEDCF1092E4
:10F560000B0103C085E292EEEEC98091C00087FFD7
:10F57000FCCF8091C600EAC988E392EEE4C98CE131
:10F5800091EEE1C988249924933011F1943028F444
:10F59000913089F09230B8F408C0953061F195301F
:10F5A000F0F0963009F048C043C02B3109F042C951
:10F5B00091E06BE13FC96227C15DDE4F2883CF52E6
:10F5C000D14092E037C9B22FA0E0622793E032C960
:10F5D000822F90E0A82BB92B622794E02BC92E3004
:10F5E00009F039C3622795E0C05DDE4F19821882A9
:10F5F000C053D1401FC9E1E0F0E0EC0FFD1FC05D3A
:10F60000DE4F08811981C053D140E00FF11F2083E4
:10F610000F5F1F4FC05DDE4F19830883C053D14079
:10F6200062270A171B0709F005C9D80196E002C92D
:10F63000261709F010C303C0973009F0FBC87724E0
:10F640009981933109F412C19431C8F4963009F4C8
:10F65000D8C0973050F4923009F406C1933009F4C1
:10F660006DC0913009F059C253C0913109F477C08F
:10F67000923108F0BBC0903109F04FC2F5C098310B
:10F6800009F487C0993150F4953109F4EFC09531F0
:10F6900008F4C6C1963109F040C2C2C19A3109F4DA
:10F6A0006CC09A3108F491C09B3109F45BC09D3164
:10F6B00009F033C29D81903359F48F81882311F46E
:10F6C0009EE11CC0813011F091E018C098E916C08D
:10F6D000892F807591F0903539F4E0E0F0E089E011
:10F6E0008093570094910AC0983539F4E3E0F0E034
:10F6F00089E080935700949101C090E01A821B82A8
:10F700008D818C831D829E831F8227E030E009C299
:10F710001A8288E08B8381E48C8386E58D8382E581
:10F720008E8389E48F8383E5888780E589878FE5E9
:10F730008A8782E38B872BE030E0F3C18A818139AD
:10F7400041F0823941F0803911F48FE005C080E04A
:10F7500003C082E001C08AE01A828B8344C0772410
:10F76000739482C08D81882311F48EE12CC0813086
:10F7700011F081E028C088E926C01A82E1E0F0E0BB
:10F7800089E08093570084918B831C8224E030E0D1
:10F79000C8C18B81803589F48C81883039F4E2E0EE
:10F7A000F0E089E08093570084910DC0E0E0F0E044
:10F7B00089E080935700849106C0E3E0F0E089E09F
:10F7C0008093570084911A82DFCF8D81836C99E0FA
:10F7D000E1E0F0E0082E90935700E89507B600FCB2
:10F7E000FDCF1A821B8223E030E09BC180EC8A832C
:10F7F000CE5CDE4F188219821A821B82C253D1401E
:10F800008EC18A8190E0A0E0B0E0582F44273327D2
:10F8100022278B8190E0A0E0B0E0DC0199278827C7
:10F82000282B392B4A2B5B2B8D8190E0A0E0B0E098
:10F83000282B392B4A2B5B2B8C8190E0A0E0B0E089
:10F84000BA2FA92F982F8827282B392B4A2B5B2BCF
:10F85000220F331F441F551FC05EDE4F288339839C
:10F860004A835B83C052D1401A8259C13A81C95C34
:10F87000DE4F3883C753D140CA5CDE4F1882C6536F
:10F88000D1408B81C82EDD24CA5CDE4F488159816E
:10F89000C653D140C42AD52A933109F082C0CE5C28
:10F8A000DE4F88819981AA81BB81C253D1408050AB
:10F8B000904CA340B04030F583E0CE5CDE4FE88052
:10F8C000F9800A811B81C253D140F70100935B008C
:10F8D00080935700E89507B600FCFDCFCE5CDE4F65
:10F8E000088119812A813B81C253D14000501F4FAA
:10F8F0002F4F3F4FCE5CDE4F088319832A833B8313
:10F90000C253D140C05EDE4F488159816A817B81FC
:10F91000C052D140DE011B9631E08C9111962C91A2
:10F9200011971296C75CDE4F2883C953D140C85C3B
:10F93000DE4F1882C853D14090E0C85CDE4FE881AA
:10F94000F981C853D1408E2B9F2B0C01FA01609393
:10F950005B0030935700E89511244E5F5F4F6F4F67
:10F960007F4F0EEFE02E0FEFF02ECE0CDF1CC114F8
:10F97000D10499F685E0C05EDE4F088119812A81A5
:10F980003B81C052D140F80120935B008093570027
:10F99000E89507B600FCFDCF81E180935700E8951C
:10F9A00035C0C05EDE4F88819981AA81BB81C0527B
:10F9B000D140B695A795979587957C018601ABE0D8
:10F9C000AA2EB12CAC0EBD1E0BC0D5016D915D01F0
:10F9D000C7010F947FFE0894E11CF11C01501040F8
:10F9E0000115110591F7A60160E070E0440F551F65
:10F9F000661F771FC05EDE4FE880F9800A811B8199
:10FA0000C052D1404E0D5F1D601F711F1A82C05E33
:10FA1000DE4F488359836A837B83C052D1407FC0C5
:10FA2000FA80C55CDE4FF882CB53D140C65CDE4F16
:10FA30001882CA53D1408B81C82EDD24C65CDE4FAC
:10FA400008811981CA53D140C02AD12A1A828981DA
:10FA5000BE016D5F7F4F843121F59601C05EDE4FA0
:10FA6000E880F9800A811B81C052D1400BBFF701A9
:10FA700087919691DB018C9311969C936E5F7F4FDB
:10FA8000D801C7010296A11DB11DC05EDE4F88835B
:10FA90009983AA83BB83C052D14022503040F1F6F3
:10FAA00036C0C05EDE4F288139814A815B81C052F9
:10FAB000D1400894C108D108760100E010E0089414
:10FAC000C11CD11C0894E11CF11C011D111DE20E8A
:10FAD000F31E041F151F21BDBB27A52F942F832FB5
:10FAE00082BD2F5F3F4F4F4F5F4FF89A80B5DB01CC
:10FAF0008D93BD012E153F054007510761F7C05E8C
:10FB0000DE4F288339834A835B83C052D1409601FC
:10FB10002D5F3F4FFB01108204C080EC8A8322E0FE
:10FB200030E08BE18093C6008091C00086FFFCCF5F
:10FB30008091C00080648093C000C15DDE4FF88179
:10FB4000CF52D140F093C6008091C00086FFFCCF19
:10FB50008091C00080648093C000432F3093C60022
:10FB60008091C00086FFFCCF8091C00080648093AC
:10FB7000C000922F2093C6008091C00086FFFCCF6A
:10FB80008091C00080648093C0008EE08093C600A6
:10FB90008091C00086FFFCCF8091C000806480937C
:10FBA000C00065E1C15DDE4FE880CF52D1406E25D7
:10FBB00069276427FE01319610C090819093C6009A
:10FBC0008091C00086FFFCCF31968091C000806498
:10FBD0008093C0006927215030402115310569F715
:10FBE0006093C6008091C00086FFFCCF8091C0006A
:10FBF00080648093C00085B1805885B9772081F4F6
:10FC0000C15DDE4F0881CF52D1400F5FC15DDE4F35
:10FC10000883CF52D14090E0A0E0B0E00D941AF4F8
:10FC200027982F9880E090E020ED37E0F901319798
:10FC3000F1F7019684369105C9F700008091C00064
:10FC40008D7F8093C00081E180935700E895EE2777
:10FC5000FF270994FFCF90E00D941AF497FB092E2B
:10FC600007260AD077FD04D02ED006D000201AF443
:10FC7000709561957F4F0895F6F7909581959F4F08
:10FC80000895A1E21A2EAA1BBB1BFD010DC0AA1FDD
:10FC9000BB1FEE1FFF1FA217B307E407F50720F0F5
:10FCA000A21BB30BE40BF50B661F771F881F991F70
:10FCB0001A9469F760957095809590959B01AC01B9
:10FCC000BD01CF010895AA1BBB1B51E107C0AA1FAC
:10FCD000BB1FA617B70710F0A61BB70B881F991FED
:10FCE0005A95A9F780959095BC01CD010895F99991
:10FCF000FECF92BD81BDF89A992780B50895262F31
:10FD0000F999FECF1FBA92BD81BD20BD0FB6F89400
:0EFD1000FA9AF99A0FBE01960895F894FFCF63
:040000033000E000E9
:00000001FF
